:020000040000FA
:100000000C9434000C9451000C9451000C94510049
:100010000C9451000C9451000C9451000C9451001C
:100020000C9451000C9451000C9451000C9451000C
:100030000C9451000C9451000C94D5000C94510078
:100040000C9451000C9451000C9451000C945100EC
:100050000C9451000C9451000C9451000C945100DC
:100060000C947B000C94510011241FBECFEFD8E0FC
:10007000DEBFCDBF11E0A0E0B1E0EEE8F2E002C0EB
:1000800005900D92AE3BB107D9F721E0AEEBB1E0A0
:1000900001C01D92A23CB207E1F70E94FA000C9445
:1000A00045010C9400009091C00095FFFCCF809317
:1000B000C6000895CF93C82F82958F708A3058F06C
:1000C000895C0E9453008C2F8F708A3030F0895CDD
:1000D000CF910C945300805DF4CF805DF9CFCF9326
:1000E000DF93EC018991882319F00E945300FACF25
:1000F000DF91CF9108951F920F920FB60F921124A6
:100100002F933F934F935F936F937F938F939F931F
:10011000AF93BF93CF93EF93FF93C091B900C87F84
:10012000C03891F08EE791E0C03A01F188E291E0A9
:10013000C036E1F086EA91E00E946F008C2F0E94A9
:100140005A008BE691E012C0C091BB008FE491E0B1
:100150000E946F008C2F0E945A008BE691E00E9453
:100160006F00C535E1F42D9A81E691E00E946F00A1
:100170008091BC0080648093BC00FF91EF91CF918F
:10018000BF91AF919F918F917F916F915F914F91AF
:100190003F912F910F900FBE0F901F901895CA3A64
:1001A00039F72D988EE691E0E1CF1F920F920FB6AE
:1001B0000F9211248F939F93AF93BF938091BE01B1
:1001C0009091BF01A091C001B091C1010196A11D04
:1001D000B11D8093BE019093BF01A093C001B09365
:1001E000C101BF91AF919F918F910F900FBE0F9062
:1001F0001F901895259A82E084BD93E095BD99EFF4
:1002000097BD80936E0088B1806388B980E8809341
:10021000BA0085E48093BC001092C50087E6809305
:10022000C40088E08093C10086E08093C20080E033
:1002300091E00E946F008BE191E00E946F0080E4EA
:100240000E945A008BE691E00E946F007894F89427
:100250004091BE015091BF016091C0017091C101F8
:100260007894F8948091BE019091BF01A091C00153
:10027000B091C1017894841B950BA60BB70B843603
:100280009105A105B10568F3E2CFF894FFCF45735E
:10029000637261766F2049324320696E69636961D8
:1002A0006C697A61646F0D0A00456E6465726563FE
:1002B0006F3A20307800456E64657265636F207216
:1002C00065636F6E68656369646F202D206D6F6470
:1002D0006F207265636570746F720D0A004461640B
:1002E0006F20726563656269646F3A203078004CF4
:1002F0004544204C494741444F0D0A004C45442099
:100300004445534C494741444F0D0A0053544F5004
:1003100020726563656269646F202D20636F6D755F
:100320006E69636163616F20636F6E636C7569648E
:10033000610D0A0045737461646F20646573636FB7
:0C0340006E68656369646F3A20307800D5
:107E0000112484B714BE81FFF0D085E080938100F7
:107E100082E08093C00088E18093C10086E0809377
:107E2000C20080E18093C4008EE0C9D0259A86E02C
:107E300020E33CEF91E0309385002093840096BBD3
:107E4000B09BFECF1D9AA8958150A9F7CC24DD24C4
:107E500088248394B5E0AB2EA1E19A2EF3E0BF2EE7
:107E6000A2D0813461F49FD0082FAFD0023811F036
:107E7000013811F484E001C083E08DD089C08234E0
:107E800011F484E103C0853419F485E0A6D080C0E4
:107E9000853579F488D0E82EFF2485D0082F10E0AE
:107EA000102F00270E291F29000F111F8ED06801E7
:107EB0006FC0863521F484E090D080E0DECF843638
:107EC00009F040C070D06FD0082F6DD080E0C81688
:107ED00080E7D80618F4F601B7BEE895C0E0D1E017
:107EE00062D089930C17E1F7F0E0CF16F0E7DF06D8
:107EF00018F0F601B7BEE89568D007B600FCFDCFD4
:107F0000A601A0E0B1E02C9130E011968C91119780
:107F100090E0982F8827822B932B1296FA010C0160
:107F200087BEE89511244E5F5F4FF1E0A038BF0790
:107F300051F7F601A7BEE89507B600FCFDCF97BE46
:107F4000E89526C08437B1F42ED02DD0F82E2BD052
:107F50003CD0F601EF2C8F010F5F1F4F84911BD097
:107F6000EA94F801C1F70894C11CD11CFA94CF0C13
:107F7000D11C0EC0853739F428D08EE10CD085E9AC
:107F80000AD08FE07ACF813511F488E018D01DD067
:107F900080E101D065CF982F8091C00085FFFCCF94
:107FA0009093C60008958091C00087FFFCCF809118
:107FB000C00084FD01C0A8958091C6000895E0E648
:107FC000F0E098E1908380830895EDDF803219F02E
:107FD00088E0F5DFFFCF84E1DECF1F93182FE3DFCA
:107FE0001150E9F7F2DF1F91089580E0E8DFEE27F6
:047FF000FF270994CA
:027FFE00040479
:00000001FF
