:020000040000FA
:100000000C9435000C945D000C945D000C945D0024
:100010000C945D000C945D000C945D000C945D00EC
:100020000C945D000C945D000C945D000C945D00DC
:100030000C945D000C945D000C945D000C945D00CC
:100040000C94CB010C945D000C943B020C941502B3
:100050000C945D000C945D000C945D000C945D00AC
:100060000C946D020C945D008B0311241FBECFEF26
:10007000D8E0DEBFCDBF11E0A0E0B1E0E4ECF7E0F6
:1000800002C005900D92AE3CB107D9F722E0AEEC6C
:10009000B1E001C01D92A437B207E1F710E0C5E35B
:1000A000D0E004C02197FE010E94DA03C433D107D7
:1000B000C9F70E94D3020C94E0030C940000AF92A5
:1000C000BF92CF92DF92EF92FF920F931F93CF9345
:1000D000DF936C017B018B01040F151FEB015E01A7
:1000E000AE18BF08C017D10759F06991D601ED913C
:1000F000FC910190F081E02DC6010995892B79F7DB
:10010000C501DF91CF911F910F91FF90EF90DF908C
:10011000CF90BF90AF900895FC01538D448D252F53
:1001200030E0842F90E0821B930B541710F0CF9691
:10013000089501970895FC01918D828D981761F0C3
:10014000A28DAE0FBF2FB11D5D968C91928D9F5FDA
:100150009F73928F90E008958FEF9FEF0895FC01B9
:10016000918D828D981731F0828DE80FF11D858D6C
:1001700090E008958FEF9FEF0895FC01918D228DFF
:10018000892F90E0805C9F4F821B91098F73992784
:10019000089587ED91E00E94BD0021E0892B09F4CC
:1001A00020E0822F089580E090E0892B29F00E94C2
:1001B000C90081110C9400000895FC01A48DA80FC2
:1001C000B92FB11DA35ABF4F2C91848D90E0019699
:1001D0008F739927848FA689B7892C93A089B189B9
:1001E0008C91837080648C93938D848D981306C05A
:1001F0000288F389E02D80818F7D80830895EF92BE
:10020000FF920F931F93CF93DF93EC0181E0888FD0
:100210009B8D8C8D98131AC0E889F989808185FFA0
:1002200015C09FB7F894EE89FF896083E889F98942
:1002300080818370806480839FBF81E090E0DF9144
:10024000CF911F910F91FF90EF900895F62E0B8D97
:1002500010E00F5F1F4F0F731127E02E8C8D8E1152
:100260000CC00FB607FCFACFE889F989808185FFB9
:10027000F5CFCE010E94DD00F1CFEB8DEC0FFD2F0D
:10028000F11DE35AFF4FF0829FB7F8940B8FEA8974
:10029000FB8980818062CFCFCF93DF93EC01888D83
:1002A0008823B9F0AA89BB89E889F9898C9185FDF1
:1002B00003C0808186FD0DC00FB607FCF7CF8C917F
:1002C00085FFF2CF808185FFEDCFCE010E94DD005A
:1002D000E9CFDF91CF910895FC0101900020E9F76B
:1002E0003197AF01481B590BBC0187ED91E00C948D
:1002F0005F008F929F92AF92BF920F931F93CF9305
:10030000DF93CDB7DEB7A1970FB6F894DEBF0FBE6F
:10031000CDBF19A2423008F44AE08E010F5D1F4F95
:10032000842E912CB12CA12CA50194010E94B8031C
:10033000E62FB901CA01EA30F4F4E05DD801EE938A
:100340008D01232B242B252B79F790E080E010974B
:1003500019F0CD010E946C01A1960FB6F894DEBF92
:100360000FBECDBFDF91CF911F910F91BF90AF9086
:100370009F908F900895E95CE1CFCF93DF930E9427
:100380006C01EC0182E191E00E946C018C0F9D1FD9
:10039000DF91CF9108951F920F920FB60F92112403
:1003A0002F933F938F939F93AF93BF938091D301EC
:1003B0009091D401A091D501B091D6013091D20194
:1003C00023E0230F2D3758F50196A11DB11D209371
:1003D000D2018093D3019093D401A093D501B0931F
:1003E000D6018091CE019091CF01A091D001B09122
:1003F000D1010196A11DB11D8093CE019093CF0133
:10040000A093D001B093D101BF91AF919F918F91F3
:100410003F912F910F900FBE0F901F90189526E8D7
:10042000230F0296A11DB11DD2CF1F920F920FB6BE
:100430000F9211242F933F934F935F936F937F936A
:100440008F939F93AF93BF93EF93FF9387ED91E0CB
:100450000E94DD00FF91EF91BF91AF919F918F912D
:100460007F916F915F914F913F912F910F900FBEB0
:100470000F901F9018951F920F920FB60F92112494
:100480002F938F939F93EF93FF93E091E701F09168
:10049000E8018081E091ED01F091EE0182FD1BC049
:1004A00090818091F0018F5F8F732091F10182170D
:1004B00041F0E091F001F0E0E952FE4F958F80931A
:1004C000F001FF91EF919F918F912F910F900FBEAF
:1004D0000F901F9018958081F4CF1F920F920FB646
:1004E0000F9211242F933F934F935F936F937F93BA
:1004F0008F939F93AF93BF93CF93EF93FF93C0914D
:10050000B900C87FC038B9F0C03A09F449C08CE3DB
:1005100091E0C03631F186EB91E00E946C016C2FC6
:1005200070E090E080E040E10E94790182E191E09A
:100530000E946C0118C0C091BB0082E691E00E944D
:100540006C016C2F70E090E080E040E10E94790146
:1005500082E191E00E946C01C535E1F42D9A84E7B7
:1005600091E00E94BD018091BC0080648093BC003A
:10057000FF91EF91CF91BF91AF919F918F917F911B
:100580006F915F914F913F912F910F900FBE0F9000
:100590001F901895CA3A39F72D988FE791E0E1CF6F
:1005A0008DE891E0DECF789484B5826084BD84B517
:1005B000816084BD85B5826085BD85B5816085BD5E
:1005C00080916E00816080936E0010928100809116
:1005D000810082608093810080918100816080939E
:1005E0008100809180008160809380008091B100C3
:1005F00084608093B1008091B00081608093B000EE
:1006000080917A00846080937A0080917A00826081
:1006100080937A0080917A00816080937A00809143
:100620007A00806880937A001092C100259A88B180
:10063000806388B980E88093BA0084E48093BC002A
:100640008091BC0081608093BC00E091E701F09153
:10065000E80182E08083E091E301F091E4011082FF
:10066000E091E501F091E6018FEC80831092EF01BB
:10067000E091EB01F091EC0186E08083E091E901EB
:10068000F091EA01808180618083E091E901F0913D
:10069000EA01808188608083E091E901F091EA01BC
:1006A000808180688083E091E901F091EA01808196
:1006B0008F7D808385E191E00E94BD018EE291E013
:1006C0000E946C0140E160E470E080E090E00E94F4
:1006D000790182E191E00E946C0178942FEF81EE24
:1006E00094E0215080409040E1F700C00000C0E05D
:1006F000D0E02FEF81EE94E0215080409040E1F770
:1007000000C000002097A9F30E94C900882389F344
:100710000E940000EECFE7EDF1E01382128288EE36
:1007200093E0A0E0B0E084839583A683B78384E060
:1007300091E09183808385EC90E09587848784ECB9
:1007400090E09787868780EC90E0918B808B81EC9E
:1007500090E0938B828B82EC90E0958B848B86EC7F
:1007600090E0978B868B118E128E138E148E0895C7
:10077000A1E21A2EAA1BBB1BFD010DC0AA1FBB1FA5
:10078000EE1FFF1FA217B307E407F50720F0A21B17
:10079000B30BE40BF50B661F771F881F991F1A9484
:1007A00069F760957095809590959B01AC01BD01AE
:1007B000CF010895EE0FFF1F0590F491E02D0994ED
:1007C000F894FFCF00000000FF005F008C004C0198
:1007D000BD009B00AF000D0A004573637261766F28
:1007E0002049324320696E696369616C697A61648A
:1007F0006F00456E64657265C3A76F3A203078005C
:10080000456E64657265C3A76F207265636F6E681D
:10081000656369646F202D206D6F646F207265635E
:100820006570746F72004461646F20726563656205
:1008300069646F3A203078004C4544204C49474168
:10084000444F004C4544204445534C494741444F94
:100850000053544F5020726563656269646F202DA8
:1008600020636F6D756E696361C3A7C3A36F206357
:100870006F6E636C75C3AD64610045737461646FC2
:1008800020646573636F6E68656369646F3A2030D6
:020890007800EE
:107E0000112484B714BE81FFF0D085E080938100F7
:107E100082E08093C00088E18093C10086E0809377
:107E2000C20080E18093C4008EE0C9D0259A86E02C
:107E300020E33CEF91E0309385002093840096BBD3
:107E4000B09BFECF1D9AA8958150A9F7CC24DD24C4
:107E500088248394B5E0AB2EA1E19A2EF3E0BF2EE7
:107E6000A2D0813461F49FD0082FAFD0023811F036
:107E7000013811F484E001C083E08DD089C08234E0
:107E800011F484E103C0853419F485E0A6D080C0E4
:107E9000853579F488D0E82EFF2485D0082F10E0AE
:107EA000102F00270E291F29000F111F8ED06801E7
:107EB0006FC0863521F484E090D080E0DECF843638
:107EC00009F040C070D06FD0082F6DD080E0C81688
:107ED00080E7D80618F4F601B7BEE895C0E0D1E017
:107EE00062D089930C17E1F7F0E0CF16F0E7DF06D8
:107EF00018F0F601B7BEE89568D007B600FCFDCFD4
:107F0000A601A0E0B1E02C9130E011968C91119780
:107F100090E0982F8827822B932B1296FA010C0160
:107F200087BEE89511244E5F5F4FF1E0A038BF0790
:107F300051F7F601A7BEE89507B600FCFDCF97BE46
:107F4000E89526C08437B1F42ED02DD0F82E2BD052
:107F50003CD0F601EF2C8F010F5F1F4F84911BD097
:107F6000EA94F801C1F70894C11CD11CFA94CF0C13
:107F7000D11C0EC0853739F428D08EE10CD085E9AC
:107F80000AD08FE07ACF813511F488E018D01DD067
:107F900080E101D065CF982F8091C00085FFFCCF94
:107FA0009093C60008958091C00087FFFCCF809118
:107FB000C00084FD01C0A8958091C6000895E0E648
:107FC000F0E098E1908380830895EDDF803219F02E
:107FD00088E0F5DFFFCF84E1DECF1F93182FE3DFCA
:107FE0001150E9F7F2DF1F91089580E0E8DFEE27F6
:047FF000FF270994CA
:027FFE00040479
:00000001FF
