:020000040000FA
:100000000C94D6000C94FE000C94FE000C948E0808
:100010000C94FE000C94FE000C94FE000C94FE0068
:100020000C94FE000C94FE000C94FE000C940A0943
:100030000C94FE000C94FE000C94FE000C94FE0048
:100040000C94CD060C94FE000C943D070C941707FD
:100050000C94FE000C94FE000C94FE000C94FE0028
:100060000C946F070C94FE0000407A10F35A00A025
:10007000724E18090010A5D4E80000E87648170071
:1000800000E40B54020000CA9A3B000000E1F505B1
:10009000000080969800000040420F000000A086FB
:1000A00001000000102700000000E803000000002D
:1000B0006400000000000A000000000001000000D1
:1000C00000002C76D888DC674F0823DFC1DFAE59EB
:1000D000E1B1B796E5E3E453C63AE651997696E87E
:1000E000E6C28426EB898C9B62ED407C6FFCEFBC02
:1000F0009C9F40F2BAA56FA5F490055A2AF75C932D
:100100006B6CF9676DC11BFCE0E40D47FEF520E662
:10011000B500D0ED902E0300943577050080841E45
:10012000080000204E0A000000C80C333333330FA0
:10013000986E12831141EF8D2114893BE65516CF3D
:10014000FEE6DB18D1844B381BF77C1D901DA4BB49
:10015000E424203284725E228100C9F124ECA1E5FE
:100160003D2700000000250028002B0004040404A3
:100170000404040402020202020203030303030351
:10018000010204081020408001020408102001022E
:10019000040810200000000800020100000304070A
:1001A00000000000000000005109B50C11241FBE22
:1001B000CFEFD8E0DEBFCDBF23E0A6EBB1E001C0BA
:1001C0001D92A335B207E1F711E0A0E0B1E0E2E152
:1001D000F8E202C005900D92A63BB107D9F710E0F6
:1001E000C5EDD0E004C02197FE010E940412C43D79
:1001F000D107C9F70E94A7090C94FC130C940000C6
:1002000090E0FC01EC56FE4F2491FC01E058FE4FBB
:100210003491FC01E459FE4FE491EE23C9F022230E
:1002200039F0233001F1A8F4213019F1223029F1FD
:10023000F0E0EE0FFF1FEE59FE4FA591B4918FB77E
:10024000F894EC91611126C030953E233C938FBF0A
:1002500008952730A9F02830C9F0243049F780915B
:1002600080008F7D03C0809180008F778093800015
:10027000DFCF84B58F7784BDDBCF84B58F7DFBCF97
:100280008091B0008F778093B000D2CF8091B00082
:100290008F7DF9CF3E2BDACF3FB7F894809196024D
:1002A00090919702A0919802B091990226B5A89BCF
:1002B00005C02F3F19F00196A11DB11D3FBFBA2FF8
:1002C000A92F982F8827BC01CD01620F711D811DB8
:1002D000911D42E0660F771F881F991F4A95D1F73D
:1002E0000895E0915902F0915A02309729F0109246
:1002F00054021092530209940895CF93DF93AC01F6
:10030000E0915702F09158023097F1F09091560227
:10031000809155029817C0F090E0292F30E0261701
:10032000370754F4D901A154BE4F240F351FE901FA
:1003300028812C939F5FF1CF109256026093550253
:10034000CB01DF91CF910994DF91CF910895AF92C6
:10035000BF92CF92DF92EF92FF920F931F93CF93B2
:10036000DF936C017B018B01040F151FEB015E0114
:10037000AE18BF08C017D10759F06991D601ED91A9
:10038000FC910190F081E02DC6010995892B79F748
:10039000C501DF91CF911F910F91FF90EF90DF90FA
:1003A000CF90BF90AF900895FC01538D448D252FC1
:1003B00030E0842F90E0821B930B541710F0CF96FF
:1003C000089501970895FC01918D828D981761F031
:1003D000A28DAE0FBF2FB11D5D968C91928D9F5F48
:1003E0009F73928F90E008958FEF9FEF0895FC0127
:1003F000918D828D981731F0828DE80FF11D858DDA
:1004000090E008958FEF9FEF0895FC01918D228D6C
:10041000892F90E0805C9F4F821B91098F739927F1
:1004200008958AE992E00E94050221E0892B09F4EF
:1004300020E0822F089580E090E0892B29F00E942F
:10044000110281110C9400000895FC01A48DA80FE5
:10045000B92FB11DA35ABF4F2C91848D90E0019606
:100460008F739927848FA689B7892C93A089B18926
:100470008C91837080648C93938D848D981306C0C7
:100480000288F389E02D80818F7D80830895EF922B
:10049000FF920F931F93CF93DF93EC0181E0888F3E
:1004A0009B8D8C8D98131AC0E889F989808185FF0E
:1004B00015C09FB7F894EE89FF896083E889F989B0
:1004C00080818370806480839FBF81E090E0DF91B2
:1004D000CF911F910F91FF90EF900895F62E0B8D05
:1004E00010E00F5F1F4F0F731127E02E8C8D8E11C0
:1004F0000CC00FB607FCFACFE889F989808185FF27
:10050000F5CFCE010E942502F1CFEB8DEC0FFD2F30
:10051000F11DE35AFF4FF0829FB7F8940B8FEA89E1
:10052000FB8980818062CFCFCF93DF93EC01888DF0
:100530008823B9F0AA89BB89E889F9898C9185FD5E
:1005400003C0808186FD0DC00FB607FCF7CF8C91EC
:1005500085FFF2CF808185FFEDCFCE010E9425027D
:10056000E9CFDF91CF91089520910502260F33271F
:10057000331F21323105ECF420912902FC0190E077
:1005800080E0243069F082E00895A0910502219175
:10059000AC014B515E4FA40FB52FB11D2C930196AA
:1005A000861798F380910502680F6093050280E03A
:1005B000089581E008951092290281E080932B0232
:1005C00010922A0261E082E10E94000161E083E171
:1005D0000E940001E9EBF0E080818E7F80838081C2
:1005E0008D7F808388E48093B80085E48093BC008D
:1005F00008950895E091560280915502E81730F46D
:10060000F0E0E154FE4F808190E008958FEF9FEF7E
:10061000089590915602809155022FEF3FEF981761
:1006200048F4E92FF0E0E154FE4F208130E09F5F75
:1006300090935602C90108958091550290915602F7
:10064000891B990B0895CF93DF93CB01EA01642FA7
:100650000E94B402CE01DF91CF910895CF93DF9332
:100660001F92CDB7DEB7698361E0CE0101960E948B
:10067000B40281E090E00F90DF91CF91089590E077
:1006800080E00895806480937C0087E880937A00FE
:1006900080917A00806480937A0080917A0084FF50
:1006A000FCCF80917A00806180937A0080917800FD
:1006B000909179000895FC019191992339F08091EE
:1006C000C00085FFFCCF9093C600F6CF0895FB01D4
:1006D00001900020E9F73197AF01461B570BDC0171
:1006E000ED91FC910280F381E02D09948F929F920D
:1006F000AF92BF92CF92DF92EF92FF920F931F9330
:10070000CF93DF93CDB7DEB7A1970FB6F894DEBFD6
:100710000FBECDBF6C01990FEE08FF08F7FE4BC06E
:100720006DE28AE992E00E9447028C01222733277A
:10073000A9012C193D094E095F0919A2CE01819624
:100740007C019AE0892E912CA12CB12CCA01B9010F
:10075000A50194010E94E211605DF70162937F019F
:10076000211531054105510589F790E080E030976A
:1007700029F0BF018AE992E00E946703080F191F60
:100780006CE271E08AE992E00E946703800F911F9A
:10079000A1960FB6F894DEBF0FBECDBFDF91CF910B
:1007A0001F910F91FF90EF90DF90CF90BF90AF908F
:1007B0009F908F900895A701960119A28E010F5D59
:1007C0001F4F8AE0C82ED12CE12CF12CCA01B901AF
:1007D000A70196010E94E211605DF80162938F010A
:1007E000211531054105510589F7309739F0BF01D1
:1007F0008AE992E00E9467038C01C2CF10E000E01A
:10080000BFCF60914303709144036115710521F0DE
:1008100087E393E00E9467036AE087E393E00C9428
:100820002E030F931F93CF93DF93EC01888199815F
:10083000009759F02A813B812617370730F081E075
:10084000DF91CF911F910F9108958B016F5F7F4FC3
:100850000E942F13009759F0998388831B830A8382
:100860002C813D81232B59F7FC011082E8CF80E0D9
:10087000E7CFEF92FF920F931F93CF93DF93611512
:10088000710541F480E0DF91CF911F910F91FF90AE
:10089000EF90089541155105B1F07B01EC010C81F9
:1008A0001D81040F151FB8010E941104882351F304
:1008B000288139818C819D81B701820F931F0E940D
:1008C000F5131D830C8381E0DECFCF93DF93EC0122
:1008D00088819981009711F00E94A61219821882CE
:1008E0001D821C821B821A82DF91CF910895CF93C3
:1008F000DF93EC0141E050E06FE271E00E943904C7
:10090000811103C0CE010E946504CE01DF91CF9119
:100910000895CF93DF93EC01FB0144815581608101
:1009200071810E943904811103C0CE010E946504C7
:10093000CE01DF91CF910895EF92FF920F931F9315
:10094000CF93DF93EC017B018A01BA010E9411046D
:1009500081110BC0CE010E946504CE01DF91CF91C1
:100960001F910F91FF90EF9008951D830C83B701A5
:10097000888199810E94F513F0CFFB01019000203E
:10098000E9F73197AF01461B570B0C949C040F936A
:100990001F93CF93DF93CDB7DEB762970FB6F8946E
:1009A000DEBF0FBECDBF8C01CB01F80111821082DA
:1009B00013821282158214824AE0BE016F5F7F4F5C
:1009C0000E94F90CBE016F5F7F4FC8010E94BD04F9
:1009D00062960FB6F894DEBF0FBECDBFDF91CF9108
:1009E0001F910F910895EF92FF920F931F93CF9352
:1009F000DF93CDB7DEB7A1970FB6F894DEBF0FBE79
:100A0000CDBF7C01CB01BA01F701118210821382A4
:100A10001282158214828E010F5F1F4F22E044E084
:100A20000E94BD0C009789F0BC01C7010E94BD0463
:100A3000A1960FB6F894DEBF0FBECDBFDF91CF9168
:100A40001F910F91FF90EF900895C7010E946504D8
:100A5000EFCFFC0180819181009711F00C94A612D8
:100A600008950F931F93CF93DF93CDB7DEB7E6972B
:100A70000FB6F894DEBF0FBECDBF6EE271E089E421
:100A800093E00E94BD049091550280915602981700
:100A900081F087E393E00E94090389831A8241E091
:100AA00050E0BE016F5F7F4F89E493E00E943904FC
:100AB000EACF0091490310914A03F8018081803503
:100AC00009F042C08181813319F561E371E083E46B
:100AD00093E00E94BD04C80103960E94DB0CBC0198
:100AE000990F880B990B0E94740F60936F0270939B
:100AF00070028093710290937202E6960FB6F8949A
:100B0000DEBF0FBECDBFDF91CF911F910F91089532
:100B1000823309F0E4C06DE371E083E493E00E9466
:100B2000BD04C80103960E94DB0CBC01990F880B21
:100B3000990B0E94740F60938302709384028093D8
:100B4000850290938602D9CF843409F0C8C06091A1
:100B5000870270918802CE01C1960E94C70440911D
:100B60007F02509180026091810270918202CE01D9
:100B70008B960E94F30440916B0250916C0260913D
:100B80006D0270916E02CE0185960E94F304609111
:100B9000000170910101CE014F960E94C70460913F
:100BA000610270916202CE0149960E94C704609171
:100BB0005B0270915C02CE0143960E94C704609173
:100BC0005F0270916002CE010D960E94C704609191
:100BD0005D0270915E02CE0101960E94C7041886E4
:100BE0001F821A8619861C861B8669817A81611587
:100BF000710531F04D815E81CE0107960E949C0403
:100C0000CE0107960E947704BE01635F7F4F0E946A
:100C100089040E947704BE016D5E7F4F0E948904A3
:100C20000E947704BE01675E7F4F0E9489040E9484
:100C30007704BE01615E7F4F0E9489040E947704A1
:100C4000BE016B5D7F4F0E9489040E947704BE0144
:100C5000655D7F4F0E9489040E947704BE016F5C2E
:100C60007F4F0E9489040E947704F3E083349F073A
:100C700061F0FC01608171816115710559F1448158
:100C8000558183E493E00E949C04CE0107960E9464
:100C90002905CE0101960E942905CE010D960E94DC
:100CA0002905CE0143960E942905CE0149960E944E
:100CB0002905CE014F960E942905CE0185960E94F6
:100CC0002905CE018B960E942905CE01C1960E946E
:100CD000290513CF83E493E00E946504D6CF69E42D
:100CE00071E083E493E00E94BD0407CFCF93DF93CC
:100CF00085ED8093BC008091E1019091E201A0918B
:100D0000E301B091E4010796A11DB11D23E0B69562
:100D1000A795979587952A95D1F72091BC0024FD3A
:100D200003C01092290236C04091E1015091E201C6
:100D30006091E3017091E401452B462B472B69F349
:100D40000097A105B10541F02AE22A95F1F700C00C
:100D50000197A109B109E1CF8091E00191E0909361
:100D6000DF018823B9F0C091B800D091BA0080911A
:100D7000BC008A7B8093BC0060E082E10E9400019D
:100D800060E083E10E9400010E94DB02D093BA0080
:100D9000C093B800DF91CF9108951F920F920FB6C4
:100DA0000F9211242F933F938F939F93AF93BF93F1
:100DB0008091920290919302A0919402B091950239
:100DC0003091910223E0230F2D3758F50196A11D94
:100DD000B11D209391028093920290939302A0936D
:100DE0009402B09395028091960290919702A091FF
:100DF0009802B09199020196A11DB11D80939602AF
:100E000090939702A0939802B0939902BF91AF91EB
:100E10009F918F913F912F910F900FBE0F901F9038
:100E2000189526E8230F0296A11DB11DD2CF1F925F
:100E30000F920FB60F9211242F933F934F935F930E
:100E40006F937F938F939F93AF93BF93EF93FF9392
:100E50008AE992E00E942502FF91EF91BF91AF9144
:100E60009F918F917F916F915F914F913F912F91C2
:100E70000F900FBE0F901F9018951F920F920FB6F4
:100E80000F9211242F938F939F93EF93FF93E091F1
:100E9000AA02F091AB028081E091B002F091B10220
:100EA00082FD1BC090818091B3028F5F8F73209170
:100EB000B402821741F0E091B302F0E0E656FD4F34
:100EC000958F8093B302FF91EF919F918F912F9116
:100ED0000F900FBE0F901F9018958081F4CF1F9236
:100EE0000F920FB60F9211242F933F934F935F935E
:100EF0006F937F938F939F93AF93BF93EF93FF93E2
:100F00008091B900887F803609F44AC0F0F58832B4
:100F100009F4A7C018F5803109F49BC0B8F4882300
:100F200009F4F9C0883009F494C0FF91EF91BF91A2
:100F3000AF919F918F917F916F915F914F913F9171
:100F40002F910F900FBE0F901F901895883109F4C4
:100F500088C0803251F78093280214C0803409F48D
:100F60009DC040F48033B9F38833F9F680932802AA
:100F700085ECB0C0803509F485C0883509F496C089
:100F8000883499F60E947606D0CF883909F48CC04F
:100F900038F5883729F050F4883611F0803729F673
:100FA00083E0809329021092270257C0883809F401
:100FB0007BC0803919F0803809F0B7CF80912702C3
:100FC000803208F071C0E091270281E08E0F80939B
:100FD00027028091BB00F0E0E95FFD4F80833DC0B8
:100FE000803B39F0E0F4803A09F479C0883A09F09E
:100FF0009CCF84E080932902109206021092050291
:10100000E0915102F09152020995809105028111FF
:101010000FC081E0809305021092E50109C0803C79
:1010200009F4A6CF883C09F4A3CF883B09F07DCF13
:10103000E091060281E08E0F80930602F0E0EB5112
:10104000FE4F80818093BB00909106028091050243
:1010500029C080914E028093BB0085EC8093BC0038
:1010600064CF90914D0280914C02981758F5E09111
:101070004D0281E08E0F80934D02F0E0E45DFD4F64
:101080008081E9CFE0914D0281E08E0F80934D0287
:101090008091BB00F0E0E45DFD4F808390914D02B4
:1010A00080914C029817C8F285E8D8CFE0914D02A4
:1010B00081E08E0F80934D028091BB00F0E0E45DF3
:1010C000FD4F808380912B0281115CCF81E0809362
:1010D0002A0284EA8093BC001092290226CF85EC74
:1010E0008093BC001092290280912702803230F454
:1010F000E0912702F0E0E95FFD4F10826091270246
:1011000070E0E0914F02F091500287E092E0099583
:10111000109227020ACF1092280234CF1F920F920A
:101120000FB60F921124CF92DF92EF92FF922F937E
:101130003F934F935F936F937F938F939F93AF935F
:10114000BF93EF93FF93C090BB01D090BC01E090A0
:10115000BD01F090BE018091B7019091B801A091BE
:10116000B901B091BA01A7019601281B390B4A0BAE
:101170005B0BDA01C901C397A105B105B0F01C9B57
:1011800014C08091B601882369F11092B60181E004
:1011900090E0909301018093000186E891E00E9425
:1011A0005B0381E090E00E947603C092B701D09289
:1011B000B801E092B901F092BA01FF91EF91BF91AD
:1011C000AF919F918F917F916F915F914F913F91DF
:1011D0002F91FF90EF90DF90CF900F900FBE0F9068
:1011E0001F90189581E08093B60110920101109232
:1011F000000167E971E08AE992E00E9467036CE20E
:1012000071E08AE992E00E94670380910001909169
:101210000101C9CF1F920F920FB60F9211242F9385
:101220003F934F935F936F937F938F939F93AF936E
:10123000BF93EF93FF938091BB019091BC01A0916C
:10124000BD01B091BE010196A11DB11D8093BB01EE
:101250009093BC01A093BD01B093BE016091BB010E
:101260007091BC018091BD019091BE010E94720FEE
:1012700060937702709378028093790290937A0258
:10128000FF91EF91BF91AF919F918F917F916F915E
:101290005F914F913F912F910F900FBE0F901F9034
:1012A0001895EAE9F2E01382128288EE93E0A0E05A
:1012B000B0E084839583A683B7832CE031E031834B
:1012C000208325EC30E03587248724EC30E0378715
:1012D000268720EC30E0318B208B21EC30E0338B03
:1012E000228B22EC30E0358B248B26EC30E0378BE0
:1012F000268B118E128E138E148EE7E3F3E0138289
:10130000128284839583A683B7838EE191E09183D3
:101310008083E9E4F3E01182108213821282158245
:10132000148250E040E06EE271E0CF010E949C0424
:10133000E3E4F3E011821082138212821582148298
:1013400044E050E06AE571E0CF010C949C04CF9337
:10135000DF9300D000D0CDB7DEB7789484B582603B
:1013600084BD84B5816084BD85B5826085BD85B549
:10137000816085BD80916E00816080936E001092C7
:101380008100809181008260809381008091810042
:1013900081608093810080918000816080938000D3
:1013A0008091B10084608093B1008091B000816031
:1013B0008093B00080917A00846080937A0080915D
:1013C0007A00826080937A0080917A0081608093B5
:1013D0007A0080917A00806880937A001092C10030
:1013E000E091AA02F091AB0282E08083E091A60234
:1013F000F091A7021082E091A802F091A9028FEC6F
:1014000080831092B202E091AE02F091AF0286E0CA
:101410008083E091AC02F091AD0280818061808395
:10142000E091AC02F091AD02808188608083E09110
:10143000AC02F091AD02808180688083E091AC02C3
:10144000F091AD0280818F7D8083109256021092C0
:10145000550210925402109253020E94DB0281E75F
:1014600091E090935202809351028DE791E0909326
:10147000500280934F0280E88093BA0081E395E0A8
:10148000909358028093570281E094E090935A021F
:10149000809359028FE591E00E945B038AB18066D8
:1014A0008AB983EA84BD83E085BD109280001092E2
:1014B000810080918100886080938100809181000B
:1014C00083608093810089EF90E0909389008093FE
:1014D000880080916F00826080936F0024988091D3
:1014E000680081608093680080916B0080618093C8
:1014F0006B00789400E010E090E080E00E944203EE
:1015000088970CF044C081E090E090935C02809357
:101510005B0281E090E00E944203BC01990F880BBE
:10152000990B0E94740F20E030E040EA50E40E94E2
:10153000D30F20E030EC4FE754E40E94351120E057
:1015400030E048EC52E40E94D30F0E94A711709340
:101550005E0260935D0282E090E00E944203843F5D
:101560009140D4F481E090E09093600280935F0218
:1015700083E090E00E944203883323E092078CF0DE
:1015800082E090E0909362028093610212C0109218
:101590005C0210925B02BDCF1092600210925F025B
:1015A000E7CF883C91050CF067C11092620210925F
:1015B000610260916F02709170028091710290914E
:1015C00072020E94AE1168BD20E030E44CE955E49F
:1015D00060916F027091700280917102909172021D
:1015E0000E94D30F20E030E04FE753E40E94351112
:1015F0006B017C01C0926B02D0926C02E0926D0292
:10160000F0926E028090670290906802A09069024A
:10161000B0906A02A50194010E946D0F409077027C
:10162000509078026090790270907A022091630263
:1016300030916402409165025091660281111FC190
:10164000C301B2010E94C8104B015C0120E030E6EA
:101650004AE657E4C701B6010E9435119B01AC016F
:10166000C501B4010E94D30F20E030E040EA51E40C
:101670000E9435119B01AC0160918D0270918E0228
:1016800080918F02909190020E94C91060938D0208
:1016900070938E0280938F02909390024092630227
:1016A00050926402609265027092660260918302B9
:1016B0007091840280918502909186020E94AE1101
:1016C00067BD20E030E44CE955E4609183027091FD
:1016D000840280918502909186020E94D30F20E0BF
:1016E00030E04FE753E40E9435116B017C01C0925A
:1016F0007F02D0928002E0928102F092820280907A
:101700007B0290907C02A0907D02B0907E02A501A9
:1017100094010E946D0F4090770250907802609083
:10172000790270907A022091730230917402409194
:101730007502509176028111DDC0C301B2010E9491
:10174000C8104B015C0120E030E64AE657E4C701CF
:10175000B6010E9435119B01AC01C501B4010E9484
:10176000D30F20E030E040EA51E40E9435119B01A4
:10177000AC016091890270918A0280918B029091F4
:101780008C020E94C9106093890270938A02809330
:101790008B0290938C02409273025092740260927A
:1017A00075027092760220E030E040E251E46091F0
:1017B0008D0270918E0280918F02909190020E9412
:1017C000DD1187FD29C020E030E048EC51E4609154
:1017D000890270918A0280918B0290918C020E9402
:1017E000DD1187FD19C080918702909188020196D2
:1017F000909388028093870210928D0210928E023D
:1018000010928F02109290021092890210928A0216
:1018100010928B0210928C020E944C014B015C01D1
:1018200088ECC82ED12CE12CF12C0E944C016819B7
:1018300079098A099B09683E734081059105A8F3DF
:1018400091E0C91AD108E108F10828EE820E23E0E0
:10185000921EA11CB11CC114D104E104F10429F7AA
:101860000115110509F448CE0E941102882309F4DC
:1018700043CE0E94000040CE81E090E083CEC301C1
:10188000B2010E94C81069837A838B839C8320E015
:1018900030E64AE657E4C501B4010E9435119B01C8
:1018A000AC0169817A818B819C810E94D30F20E0F9
:1018B00030E040EA51E40E9435119B01AC01609197
:1018C0008D0270918E0280918F02909190020E9401
:1018D000C91060938D0270938E0280938F02909353
:1018E0009002C0926702D0926802E0926902F09280
:1018F0006A02D4CEC301B2010E94C81069837A8300
:101900008B839C8320E030E64AE657E4C501B401AE
:101910000E9435119B01AC0169817A818B819C8188
:101920000E94D30F20E030E040EA51E40E943511DC
:101930009B01AC016091890270918A0280918B02B7
:1019400090918C020E94C9106093890270938A0260
:1019500080938B0290938C02C0927B02D0927C0287
:10196000E0927D02F0927E0216CF83E493E00E9423
:10197000290589E493E00C942905EF920F931F93B6
:10198000CF93DF93E80134E047FD34E1042E000CEF
:10199000550B57FF03C0519541955109E32E022F76
:1019A000242FAE010E94260DCE01DF91CF911F9111
:1019B0000F91EF900895FC0188279927E8942191D1
:1019C0002032E9F3293010F02E30C8F32B3241F0E9
:1019D0002D3239F4689404C00E94040D820F911DC9
:1019E000219120532A30C0F31EF4909581959F4F8A
:1019F0000895BB274A3031F4992322F4BDE2909533
:101A000081959F4F0C940D0D7AE0979F902D879FA5
:101A1000802D910D11240895BB27FB015527AA277E
:101A2000880F991FAA1FA41710F0A41B839550516B
:101A3000B9F7A05DAA3308F0A95DA193009779F7E3
:101A4000B111B1931192CB010C945D0FA9E0B0E0FC
:101A5000ECE2FDE00C9497106A01F22EB02E102FEC
:101A6000FBE3AF2EA01608F41BE31F5F012F27E056
:101A7000AE014F5F5F4F0E94850EBC018981982F98
:101A80009970913009F43FC09BE2E1FC04C09E2DA7
:101A90009170E0FC3AC05E2D5071E82FE87083FF32
:101AA00046C084E0911101C083E0EF2DE81B8F1543
:101AB00008F0E0E0D6018E2F20E2552351F1992362
:101AC00029F0D6019C93C60101966C0196012D5F09
:101AD0003F4FE2FE24C08EE4D6018C9391E4119630
:101AE0009C93119712968C93D9018E2F90E28111BD
:101AF0001BC0E20FF32FF11D10828EEF9FEF29968E
:101B0000ECE00C94B3109DE2C6CF90E2C4CF2D93CD
:101B100081508111FCCFCE0ED11CE0E0D0CF8EE6FB
:101B2000D6018C9391E6DBCF9D938150E0CF482F77
:101B3000447082FF3DC084E0911101C083E08F15A5
:101B400010F4EF2DE81BD6018E2F20E2552309F16A
:101B5000992329F0D6019C93C60101966C01960148
:101B60002D5F3F4FE2FE1BC089E4D6018C938EE4CB
:101B700011968C93119786E412968C93D9018E2F2F
:101B800090E2882309F4B5CF9D938150FACF2D932D
:101B900081508111FCCFCE0ED11CE0E0D9CF89E677
:101BA000D6018C938EE611968C93119786E6E4CF3E
:101BB0009B0177FF02C030E020E0A1E0B0E091118E
:101BC00002C0B0E0A0E0F9013196AE0FBF1F8B2C30
:101BD000912CBB2009F461C05401EFEFAE1ABE0A8C
:101BE000AA0DBB1DFA161B0619F014F04F2D4A1B47
:101BF000511188C0E3FC59C07601A42FB0E2A111B5
:101C00004FC0C40ED11C992309F45BC040E0D6013B
:101C10001196F60190836D01552309F448C0012FF8
:101C2000060F9A81582F507184FF03C0913309F435
:101C3000015010160CF047C0093008F008E0EEE241
:101C4000FE2E5B01A01AB108850191948194910840
:101C50002F3F320729F4D601FC92F60131966F012D
:101C60006217730794F1021713077CF5DB01A21BBF
:101C7000B30BAA24A394B12CAC0EBD1EAA0DBB1DA0
:101C800011968C9121503109D601119628153905EC
:101C9000F4F0F60180836D01DBCFB12CA12CA0CF35
:101CA000F701B1937F01A150AACF9111B0CFD60116
:101CB000942F50E302C05D9391509111FCCFC40E5C
:101CC000D11C40E0ACCF01E0BACF80E3DBCF62179C
:101CD000730731F4963388F4953311F4552369F082
:101CE000F6018083FD01842F90E2811108C0A40FCA
:101CF000B11D1C9290E080E002CF81E3F1CF91937F
:101D00008150F3CF911183CF8ACF283008F027E09C
:101D10003327DA01990F311D87FD91600096610527
:101D2000710539F432602E5F3D9330E32A95E1F777
:101D300008959F3F30F080387105610509F03C5FE0
:101D40003C5F3D93913008F08068911DDF93CF9305
:101D50001F930F93FF92EF92192F987F9695E92F7B
:101D600096959695E90FFF27EE53FF4F9927332756
:101D7000EE24FF24A701E70105900894079428F4B6
:101D8000360FE71EF81E491F511D660F771F881F6B
:101D9000991F0694A1F70590079428F4E70EF81E02
:101DA000491F561FC11D770F881F991F661F069474
:101DB000A1F70590079428F4F80E491F561FC71F76
:101DC000D11D880F991F661F771F0694A1F70590F4
:101DD000079420F4490F561FC71FD81F990F661F7D
:101DE000771F881F0694A9F784911095177041F00A
:101DF000D695C79557954795F794E7941A95C1F7E7
:101E0000E8E6F0E06894159015913591659195910B
:101E100005907FE27395E118F10A430B560BC90B4D
:101E2000D009C0F7E10CF11E431F561FC91FD01D7A
:101E30007EF4703311F48A95E6CFE894015030F0C7
:101E4000080F0AF40027021708F4202F2395022F09
:101E50007A3328F079E37D932A95E9F710C07D93D2
:101E60002A9589F60694979567953795179517944F
:101E7000E118F10A430B560BC90BD00998F02395D2
:101E80007E9173957A3308F070E37C932013B8F752
:101E90007E9170617D9330F0839571E37D9370E363
:101EA0002A95E1F71124EF90FF900F911F91CF91A8
:101EB000DF91992787FD90950895DC01FC01672F3C
:101EC00071917723E1F7329704C07C916D93708311
:101ED0006291AE17BF07C8F308950E94AF0F08F4D0
:101EE00081E00895E89409C097FB3EF490958095B1
:101EF000709561957F4F8F4F9F4F9923A9F0F92FD0
:101F000096E9BB279395F695879577956795B7954D
:101F1000F111F8CFFAF4BB0F11F460FF1BC06F5F33
:101F20007F4F8F4F9F4F16C0882311F096E911C045
:101F3000772321F09EE8872F762F05C0662371F066
:101F400096E8862F70E060E02AF09A95660F771F7A
:101F5000881FDAF7880F9695879597F90895990F56
:101F60000008550FAA0BE0E8FEEF16161706E80763
:101F7000F907C0F012161306E407F50798F0621B84
:101F8000730B840B950B39F40A2661F0232B242B59
:101F9000252B21F408950A2609F4A140A6958FEF78
:101FA000811D811D08950E94E60F0C9457100E9418
:101FB000491038F00E94501020F0952311F00C9435
:101FC00040100C94461011240C948B100E94681041
:101FD00070F3959FC1F3950F50E0551F629FF0017C
:101FE000729FBB27F00DB11D639FAA27F00DB11D95
:101FF000AA1F649F6627B00DA11D661F829F22271E
:10200000B00DA11D621F739FB00DA11D621F839FA4
:10201000A00D611D221F749F3327A00D611D231F7A
:10202000849F600D211D822F762F6A2F11249F57C8
:1020300050409AF0F1F088234AF0EE0FFF1FBB1FCB
:10204000661F771F881F91505040A9F79E3F51058A
:1020500080F00C9440100C948B105F3FE4F3983E9A
:10206000D4F3869577956795B795F795E7959F5F34
:10207000C1F7FE2B880F911D9695879597F90895C6
:1020800097F99F6780E870E060E008959FEF80EC2B
:10209000089500240A9416161706180609060895CE
:1020A00000240A9412161306140605060895092E34
:1020B0000394000C11F4882352F0BB0F40F4BF2BA3
:1020C00011F460FF04C06F5F7F4F8F4F9F4F0895E3
:1020D00057FD9058440F551F59F05F3F71F04795D9
:1020E000880F97FB991F61F09F3F79F087950895BE
:1020F000121613061406551FF2CF4695F1DF08C0DD
:10210000161617061806991FF1CF869571056105F9
:1021100008940895E894BB2766277727CB0197F9A1
:1021200008952F923F924F925F926F927F928F927B
:102130009F92AF92BF92CF92DF92EF92FF920F9356
:102140001F93CF93DF93CDB7DEB7CA1BDB0B0FB660
:10215000F894DEBF0FBECDBF09942A88398848881D
:102160005F846E847D848C849B84AA84B984C884B3
:10217000DF80EE80FD800C811B81AA81B981CE0FAA
:10218000D11D0FB6F894DEBF0FBECDBFED0108958F
:102190005058BB27AA270E94E0100C9457100E94A9
:1021A000491038F00E94501020F039F49F3F19F484
:1021B00026F40C9446100EF4E095E7FB0C944010C6
:1021C000E92F0E94681058F3BA1762077307840753
:1021D000950720F079F4A6F50C948A100EF4E0959A
:1021E0000B2EBA2FA02D0B01B90190010C01CA01D1
:1021F000A0011124FF27591B99F0593F50F4503E7C
:1022000068F11A16F040A22F232F342F4427585F6D
:10221000F3CF469537952795A795F0405395C9F785
:102220007EF41F16BA0B620B730B840BBAF091503D
:10223000A1F0FF0FBB1F661F771F881FC2F70EC0DC
:10224000BA0F621F731F841F48F4879577956795AF
:10225000B795F7959E3F08F0B0CF9395880F08F09B
:102260009927EE0F9795879508950E9449110C9430
:1022700057100E94501058F00E94491040F029F465
:102280005F3F29F00C94401051110C948B100C946A
:1022900046100E94681068F39923B1F3552391F317
:1022A000951B550BBB27AA2762177307840738F0C5
:1022B0009F5F5F4F220F331F441FAA1FA9F335D022
:1022C0000E2E3AF0E0E832D091505040E695001CD6
:1022D000CAF72BD0FE2F29D0660F771F881FBB1F90
:1022E000261737074807AB07B0E809F0BB0B802D6E
:1022F000BF01FF2793585F4F3AF09E3F510578F09A
:102300000C9440100C948B105F3FE4F3983ED4F390
:10231000869577956795B795F7959F5FC9F7880F6D
:10232000911D9695879597F90895E1E0660F771FBF
:10233000881FBB1F621773078407BA0720F0621B50
:10234000730B840BBA0BEE1F88F7E09508950E947B
:10235000AE116894B1110C948B1008950E94701006
:1023600088F09F5798F0B92F9927B751B0F0E1F056
:10237000660F771F881F991F1AF0BA95C9F714C006
:10238000B13091F00E948A10B1E008950C948A1047
:10239000672F782F8827B85F39F0B93FCCF386953F
:1023A00077956795B395D9F73EF49095809570959C
:1023B00061957F4F8F4F9F4F08950E94AF0F08F494
:1023C0008FEF0895A1E21A2EAA1BBB1BFD010DC0C1
:1023D000AA1FBB1FEE1FFF1FA217B307E407F507D5
:1023E00020F0A21BB30BE40BF50B661F771F881FB1
:1023F000991F1A9469F760957095809590959B0147
:10240000AC01BD01CF010895EE0FFF1F0590F491BF
:10241000E02D09940F931F93CF93DF9382309105A2
:1024200010F482E090E0E0915103F091520330E02B
:1024300020E0B0E0A0E0309799F42115310509F4CF
:102440004AC0281B390B24303105D8F58A819B817D
:102450006115710589F1FB0193838283FE0111C02F
:10246000408151810281138148175907E0F04817D4
:10247000590799F4109761F012960C9312971396DE
:102480001C933296CF01DF91CF911F910F91089548
:102490000093510310935203F4CF2115310551F0ED
:1024A0004217530738F0A901DB019A01BD01DF0192
:1024B000F801C1CFEF01F9CF9093520380935103FC
:1024C000CDCFFE01E20FF31F81939193225031098A
:1024D00039832883D7CF20914F0330915003232B8A
:1024E00041F4209104013091050130935003209371
:1024F0004F0320910201309103012115310541F470
:102500002DB73EB74091060150910701241B350BB2
:10251000E0914F03F0915003E217F307A0F42E1B54
:102520003F0B2817390778F0AC014E5F5F4F241737
:10253000350748F04E0F5F1F5093500340934F03F1
:10254000819391939FCFF0E0E0E09CCFCF93DF9316
:102550000097E9F0FC01329713821282A091510397
:10256000B0915203ED0130E020E01097A1F42081FA
:102570003181820F931F20914F0330915003281710
:10258000390709F061C0F0935003E0934F03DF91E6
:10259000CF910895EA01CE17DF07E8F54A815B8104
:1025A0009E0141155105B1F7E901FB83EA83499189
:1025B0005991C40FD51FEC17FD0761F480819181FB
:1025C0000296840F951FE901998388838281938104
:1025D0009B838A83F0E0E0E012968D919C911397A3
:1025E0000097B9F52D913C911197CD010296820F7C
:1025F000931F20914F03309150032817390739F664
:10260000309751F51092520310925103B09350033A
:10261000A0934F03BCCFD383C28340815181840FE9
:10262000951FC817D90761F44E5F5F4F8881998164
:10263000480F591F518340838A819B8193838283F2
:102640002115310509F0B0CFF0935203E093510307
:102650009ECFFD01DC01C0CF13821282D7CFB0E044
:10266000A0E0E5E3F3E10C9493108C01009751F4A2
:10267000CB010E940A128C01C801CDB7DEB7E0E1A0
:102680000C94AF10FC01E60FF71F9C01225031099A
:10269000E217F30708F49DC0D901CD91DC911197A1
:1026A000C617D70798F0C530D10530F3CE0104978F
:1026B0008617970708F3C61BD70B2297C193D193B0
:1026C0006D937C93CF010E94A612D6CF5B01AC1A0A
:1026D000BD0A4C018C0E9D1EA0915103B091520376
:1026E000512C412CF12CE12C109731F580914F03A6
:1026F000909150038815990509F05CC0461657065D
:1027000008F058C08091020190910301009741F4B4
:102710008DB79EB74091060150910701841B950B20
:10272000E817F90708F055C0F0935003E0934F0302
:10273000F90171836083A0CF8D919C9111971296BE
:102740006C90129713967C901397A815B90559F5BC
:102750006C0142E0C40ED11CCA14DB0420F1AC01B0
:102760004A195B09DA011296159780F0628273822A
:1027700051834083D9016D937C93E114F10471F08E
:10278000D7011396FC93EE93129776CF22968C0F77
:102790009D1FF90191838083F301EFCFF0935203E2
:1027A000E093510369CF4816590608F42C017D01C6
:1027B000D3019ACFCB010E940A127C01009749F005
:1027C000AE01B8010E94EC13C8010E94A612870155
:1027D00053CF10E000E050CFFB01DC0102C00190BC
:1027E0000D9241505040D8F70895FB01DC01019053
:1027F0000D920020E1F7089510E0C5EDD0E004C08F
:10280000FE010E9404122196C63DD107C9F7F89433
:10281000FFCF0100000053038000000000004702CA
:10282000A701D40194020502E301F70100000000B2
:102830002E0323033F03F9021C030903FA020D0AC6
:10284000003B00524543454249444F3A56310052FD
:102850004543454249444F3A563200434F4D414E5D
:10286000444F20494E56414C49444F00504F4E472B
:10287000004573637261766F204932432070726F36
:102880006E746F2028636F6D207465726D696E6160
:10289000646F722921200A005061726164612064B2
:1028A000657366656974612E0050617261646120B0
:1028B0007265616C697A61646120636F6D20737504
:0828C000636573736F212E00A4
:107E0000112484B714BE81FFF0D085E080938100F7
:107E100082E08093C00088E18093C10086E0809377
:107E2000C20080E18093C4008EE0C9D0259A86E02C
:107E300020E33CEF91E0309385002093840096BBD3
:107E4000B09BFECF1D9AA8958150A9F7CC24DD24C4
:107E500088248394B5E0AB2EA1E19A2EF3E0BF2EE7
:107E6000A2D0813461F49FD0082FAFD0023811F036
:107E7000013811F484E001C083E08DD089C08234E0
:107E800011F484E103C0853419F485E0A6D080C0E4
:107E9000853579F488D0E82EFF2485D0082F10E0AE
:107EA000102F00270E291F29000F111F8ED06801E7
:107EB0006FC0863521F484E090D080E0DECF843638
:107EC00009F040C070D06FD0082F6DD080E0C81688
:107ED00080E7D80618F4F601B7BEE895C0E0D1E017
:107EE00062D089930C17E1F7F0E0CF16F0E7DF06D8
:107EF00018F0F601B7BEE89568D007B600FCFDCFD4
:107F0000A601A0E0B1E02C9130E011968C91119780
:107F100090E0982F8827822B932B1296FA010C0160
:107F200087BEE89511244E5F5F4FF1E0A038BF0790
:107F300051F7F601A7BEE89507B600FCFDCF97BE46
:107F4000E89526C08437B1F42ED02DD0F82E2BD052
:107F50003CD0F601EF2C8F010F5F1F4F84911BD097
:107F6000EA94F801C1F70894C11CD11CFA94CF0C13
:107F7000D11C0EC0853739F428D08EE10CD085E9AC
:107F80000AD08FE07ACF813511F488E018D01DD067
:107F900080E101D065CF982F8091C00085FFFCCF94
:107FA0009093C60008958091C00087FFFCCF809118
:107FB000C00084FD01C0A8958091C6000895E0E648
:107FC000F0E098E1908380830895EDDF803219F02E
:107FD00088E0F5DFFFCF84E1DECF1F93182FE3DFCA
:107FE0001150E9F7F2DF1F91089580E0E8DFEE27F6
:047FF000FF270994CA
:027FFE00040479
:00000001FF
