:020000040000FA
:100000000C9434000C9451000C9451000C94510049
:100010000C9451000C9451000C9451000C9451001C
:100020000C9451000C9451000C9451000C9451000C
:100030000C9451000C9451000C941F010C9451002D
:100040000C9451000C9451000C9451000C945100EC
:100050000C9451000C9451000C9451000C945100DC
:100060000C9466000C94510011241FBECFEFD8E011
:10007000DEBFCDBF11E0A0E0B1E0E0E5F3E002C0FB
:1000800005900D92AA38B107D9F721E0AAE8B1E0AE
:1000900001C01D92AF3CB207E1F70E9444010C94ED
:1000A000A6010C9400009091C00095FFFCCF8093B6
:1000B000C6000895CF93DF93EC018991882319F04E
:1000C0000E945300FACFDF91CF9108951F920F92B3
:1000D0000FB60F9211240F931F932F933F934F93BB
:1000E0005F936F937F938F939F93AF93BF93EF93A0
:1000F000FF93CF93DF93CDB7DEB72A97DEBFCDBF97
:100100000091B900102F187F1038F1F0103A09F45F
:100110007FC088E291E01036A1F081E791E00E9473
:100120005A0012951F701A3008F487C0195C812F8D
:100130000E945300802F8870805D0E94530088E1E8
:1001400091E00E945A0024C00091BB008FE491E02E
:100150000E945A00802F002E000C990BE0E02AE04C
:1001600030E00097A9F580E30E94530088E191E018
:100170000E945A008091CA018F3350F4E091CA0165
:1001800081E08E0F8093CA01F0E0E657FE4F0083B6
:100190008091BC0080648093BC002A960FB6F894CE
:1001A000DEBF0FBECDBFDF91CF91FF91EF91BF9129
:1001B000AF919F918F917F916F915F914F913F91FF
:1001C0002F911F910F910F900FBE0F901F901895B8
:1001D00011E01E0F41E050E04C0F5D1F4E0F511D0E
:1001E000FA01B9010E949201805D8083CB01E12F69
:1001F000009771F7112309F4B9CF1150E1E0F0E055
:10020000EC0FFD1FE10FF11D80810E945300F2CF22
:10021000E091CA01F0E0E657FE4F10828FE591E0D1
:100220000E945A008AE891E00E945A0088E191E019
:100230000E945A001092CA01ABCF105D78CF1F9276
:100240000F920FB60F9211248F939F93AF93BF938A
:100250008091CB019091CC01A091CD01B091CE01C4
:100260000196A11DB11D8093CB019093CC01A09369
:10027000CD01B093CE01BF91AF919F918F910F901F
:100280000FBE0F901F901895259A82E084BD93E0D1
:1002900095BD99EF97BD80936E0088B1806388B952
:1002A00080E88093BA0085E48093BC001092C5007A
:1002B00087E68093C40088E08093C10086E0809345
:1002C000C20080E091E00E945A008BE191E00E9420
:1002D0005A0084E30E94530080E30E94530088E1A7
:1002E00091E00E945A007894F8944091CB0150918B
:1002F000CC016091CD017091CE017894F8948091F9
:10030000CB019091CC01A091CD01B091CE01789418
:10031000841B950BA60BB70B84369105A105B1057F
:1003200068F3E2CFAA1BBB1B51E107C0AA1FBB1F8A
:10033000A617B70710F0A61BB70B881F991F5A9571
:10034000A9F780959095BC01CD010895F894FFCF51
:100350004573637261766F2049324320696E696329
:1003600069616C697A61646F0D0A00456E6465723B
:1003700065636F3A20307800456E64657265636F1F
:10038000207265636F6E68656369646F202D206DF0
:100390006F646F207265636570746F720D0A00443C
:1003A00061646F20726563656269646F3A2000530F
:1003B0007472696E672072656365626964613A2070
:1003C0000045737461646F20646573636F6E686564
:0A03D0006369646F3A203078000082
:107E0000112484B714BE81FFF0D085E080938100F7
:107E100082E08093C00088E18093C10086E0809377
:107E2000C20080E18093C4008EE0C9D0259A86E02C
:107E300020E33CEF91E0309385002093840096BBD3
:107E4000B09BFECF1D9AA8958150A9F7CC24DD24C4
:107E500088248394B5E0AB2EA1E19A2EF3E0BF2EE7
:107E6000A2D0813461F49FD0082FAFD0023811F036
:107E7000013811F484E001C083E08DD089C08234E0
:107E800011F484E103C0853419F485E0A6D080C0E4
:107E9000853579F488D0E82EFF2485D0082F10E0AE
:107EA000102F00270E291F29000F111F8ED06801E7
:107EB0006FC0863521F484E090D080E0DECF843638
:107EC00009F040C070D06FD0082F6DD080E0C81688
:107ED00080E7D80618F4F601B7BEE895C0E0D1E017
:107EE00062D089930C17E1F7F0E0CF16F0E7DF06D8
:107EF00018F0F601B7BEE89568D007B600FCFDCFD4
:107F0000A601A0E0B1E02C9130E011968C91119780
:107F100090E0982F8827822B932B1296FA010C0160
:107F200087BEE89511244E5F5F4FF1E0A038BF0790
:107F300051F7F601A7BEE89507B600FCFDCF97BE46
:107F4000E89526C08437B1F42ED02DD0F82E2BD052
:107F50003CD0F601EF2C8F010F5F1F4F84911BD097
:107F6000EA94F801C1F70894C11CD11CFA94CF0C13
:107F7000D11C0EC0853739F428D08EE10CD085E9AC
:107F80000AD08FE07ACF813511F488E018D01DD067
:107F900080E101D065CF982F8091C00085FFFCCF94
:107FA0009093C60008958091C00087FFFCCF809118
:107FB000C00084FD01C0A8958091C6000895E0E648
:107FC000F0E098E1908380830895EDDF803219F02E
:107FD00088E0F5DFFFCF84E1DECF1F93182FE3DFCA
:107FE0001150E9F7F2DF1F91089580E0E8DFEE27F6
:047FF000FF270994CA
:027FFE00040479
:00000001FF
