:100000000C9458000C9480000C9480000C94800098
:100010000C9480000C9480000C9480000C94800060
:100020000C9480000C9480000C9480000C94800050
:100030000C9480000C9480000C9480000C94800040
:100040000C9461030C9480000C94D1030C94AB03CA
:100050000C9480000C9480000C9480000C94800020
:100060000C9403040C94800000000000250028007C
:100070002B00040404040404040402020202020229
:10008000030303030303010204081020408001025C
:1000900004081020010204081020000000080002DB
:1000A000010000030407000000000000000022051A
:1000B00011241FBECFEFD8E0DEBFCDBF11E0A0E01E
:1000C000B1E0E6E2FCE002C005900D92A635B10772
:1000D000D9F722E0A6E5B1E001C01D92A53AB2072A
:1000E000E1F710E0C8E5D0E004C02197FE010E94CE
:1000F0000B06C735D107C9F70E945B050C941106A2
:100100000C94000090E0FC01E656FF4F2491FC01A6
:10011000EA57FF4F3491FC01EE58FF4FE491EE2374
:10012000C9F0222339F0233001F1A8F4213019F16C
:10013000223029F1F0E0EE0FFF1FE859FF4FA591A3
:10014000B4918FB7F894EC91611126C030953E239D
:100150003C938FBF08952730A9F02830C9F0243090
:1001600049F7809180008F7D03C0809180008F7758
:1001700080938000DFCF84B58F7784BDDBCF84B5DB
:100180008F7DFBCF8091B0008F778093B000D2CF6E
:100190008091B0008F7DF9CF3E2BDACFE091F10155
:1001A000F091F201309729F01092EC011092EB01DE
:1001B00009940895CF93DF93AC01E091EF01F091A2
:1001C000F0013097F1F09091EE018091ED019817D8
:1001D000C0F090E0292F30E02617370754F4D901FA
:1001E000A95ABE4F240F351FE90128812C939F5F28
:1001F000F1CF1092EE016093ED01CB01DF91CF9131
:100200000994DF91CF910895AF92BF92CF92DF9280
:10021000EF92FF920F931F93CF93DF936C017B01BB
:100220008B01040F151FEB015E01AE18BF08C0174C
:10023000D10759F06991D601ED91FC910190F081BF
:10024000E02DC6010995892B79F7C501DF91CF9182
:100250001F910F91FF90EF90DF90CF90BF90AF90E4
:100260000895FC01538D448D252F30E0842F90E0BC
:10027000821B930B541710F0CF96089501970895A1
:10028000FC01918D828D981761F0A28DAE0FBF2F6A
:10029000B11D5D968C91928D9F5F9F73928F90E0C0
:1002A00008958FEF9FEF0895FC01918D828D98172F
:1002B00031F0828DE80FF11D858D90E008958FEF6C
:1002C0009FEF0895FC01918D228D892F90E0805C35
:1002D0009F4F821B91098F73992708958CEF91E0AE
:1002E0000E94620121E0892B09F420E0822F089509
:1002F00080E090E0892B29F00E946E0181110C941E
:1003000000000895FC01A48DA80FB92FB11DA35AB8
:10031000BF4F2C91848D90E001968F739927848F25
:10032000A689B7892C93A089B1898C918370806448
:100330008C93938D848D981306C00288F389E02DE9
:1003400080818F7D80830895EF92FF920F931F939A
:10035000CF93DF93EC0181E0888F9B8D8C8D981378
:100360001AC0E889F989808185FF15C09FB7F89484
:10037000EE89FF896083E889F989808183708064D0
:1003800080839FBF81E090E0DF91CF911F910F911B
:10039000FF90EF900895F62E0B8D10E00F5F1F4F2A
:1003A0000F731127E02E8C8D8E110CC00FB607FC39
:1003B000FACFE889F989808185FFF5CFCE010E94C7
:1003C0008201F1CFEB8DEC0FFD2FF11DE35AFF4FB2
:1003D000F0829FB7F8940B8FEA89FB898081806255
:1003E000CFCFCF93DF93EC01888D8823B9F0AA8912
:1003F000BB89E889F9898C9185FD03C0808186FDE0
:100400000DC00FB607FCF7CF8C9185FFF2CF80812E
:1004100085FFEDCFCE010E948201E9CFDF91CF9120
:10042000089520919D01260F3327331F2132310576
:10043000ECF42091C101FC0190E080E0243069F0EF
:1004400082E00895A0919D012191AC0143585E4F37
:10045000A40FB52FB11D2C930196861798F38091A8
:100460009D01680F60939D0180E0089581E00895EB
:100470001092C10181E08093C3011092C20161E03A
:1004800082E10E94820061E083E10E948200E9EB48
:10049000F0E080818E7F808380818D7F808388E4FF
:1004A0008093B80085E48093BC0008950895E0919E
:1004B000EE018091ED01E81730F4F0E0E95AFE4FCB
:1004C000808190E008958FEF9FEF08959091EE0165
:1004D0008091ED012FEF3FEF981748F4E92FF0E0FE
:1004E000E95AFE4F208130E09F5F9093EE01C901F1
:1004F00008958091ED019091EE01891B990B08956B
:10050000CF93DF93CB01EA01642F0E941102CE0149
:10051000DF91CF910895CF93DF931F92CDB7DEB7D0
:10052000698361E0CE0101960E94110281E090E0B2
:100530000F90DF91CF91089590E080E00895809131
:10054000560165E5813021F06AEA823009F060E009
:1005500089E992E00C948B02FC0101900020E9F7FC
:100560003197AF01481B590BBC018CEF91E00C9403
:100570000401CF93DF9385ED8093BC0080917901D6
:1005800090917A01A0917B01B0917C010796A11D09
:10059000B11D23E0B695A795979587952A95D1F734
:1005A0002091BC0024FD03C01092C10136C04091CF
:1005B000790150917A0160917B0170917C01452B0A
:1005C000462B472B69F30097A105B10541F02AE2BC
:1005D0002A95F1F700C00197A109B109E1CF8091F7
:1005E000780191E0909377018823B9F0C091B80029
:1005F000D091BA008091BC008A7B8093BC0060E0FF
:1006000082E10E94820060E083E10E9482000E94F9
:100610003802D093BA00C093B800DF91CF9108950B
:100620000F931F93CF93DF93CDB7DEB7A1970FB68C
:10063000F894DEBF0FBECDBF9091ED018091EE0129
:10064000981791F189E992E00E9466028093560121
:1006500084E291E00E94AC024091560150E070E0CB
:1006600060E019A2CE0181968A019B010F701127CB
:100670002227332724E076956795579547952A9545
:10068000D1F70A30E4F4005DFC010293CF0141157B
:1006900051056105710541F7EF2B11F00E94AC0285
:1006A00089E391E00E94AC02A1960FB6F894DEBFF8
:1006B0000FBECDBFDF91CF911F910F910895095CBF
:1006C000E3CF1F920F920FB60F9211242F933F93F7
:1006D0008F939F93AF93BF938091F8019091F9010D
:1006E000A091FA01B091FB013091F70123E0230FB3
:1006F0002D3758F50196A11DB11D2093F701809368
:10070000F8019093F901A093FA01B093FB01809155
:10071000F3019091F401A091F501B091F6010196D9
:10072000A11DB11D8093F3019093F401A093F501F5
:10073000B093F601BF91AF919F918F913F912F910F
:100740000F900FBE0F901F90189526E8230F02966A
:10075000A11DB11DD2CF1F920F920FB60F9211247F
:100760002F933F934F935F936F937F938F939F93B9
:10077000AF93BF93EF93FF938CEF91E00E948201C0
:10078000FF91EF91BF91AF919F918F917F916F9169
:100790005F914F913F912F910F900FBE0F901F903F
:1007A00018951F920F920FB60F9211242F938F93CB
:1007B0009F93EF93FF93E0910C02F0910D028081E3
:1007C000E0911202F091130282FD1BC09081809192
:1007D00015028F5F8F7320911602821741F0E0910E
:1007E0001502F0E0E450FE4F958F80931502FF91C3
:1007F000EF919F918F912F910F900FBE0F901F90AF
:1008000018958081F4CF1F920F920FB60F9211248A
:100810002F933F934F935F936F937F938F939F9308
:10082000AF93BF93EF93FF938091B900887F803699
:1008300009F44AC0F0F5883209F4A7C018F58031F0
:1008400009F49BC0B8F4882309F4F9C0883009F48E
:1008500094C0FF91EF91BF91AF919F918F917F9144
:100860006F915F914F913F912F910F900FBE0F901D
:100870001F901895883109F488C0803251F7809311
:10088000C00114C0803409F49DC040F48033B9F332
:100890008833F9F68093C00185ECB0C0803509F447
:1008A00085C0883509F496C0883499F60E94B9024B
:1008B000D0CF883909F48CC038F5883729F050F446
:1008C000883611F0803729F683E08093C1011092B9
:1008D000BF0157C0883809F47BC0803919F08038CF
:1008E00009F0B7CF8091BF01803208F071C0E0916C
:1008F000BF0181E08E0F8093BF018091BB00F0E0CB
:10090000E156FE4F80833DC0803B39F0E0F4803AF1
:1009100009F479C0883A09F09CCF84E08093C10142
:1009200010929E0110929D01E091E901F091EA017F
:10093000099580919D0181110FC081E080939D01F7
:1009400010927D0109C0803C09F4A6CF883C09F4CF
:10095000A3CF883B09F07DCFE0919E0181E08E0F0F
:1009600080939E01F0E0E358FE4F80818093BB00AE
:1009700090919E0180919D0129C08091E601809314
:10098000BB0085EC8093BC0064CF9091E501809121
:10099000E401981758F5E091E50181E08E0F80930E
:1009A000E501F0E0EC53FE4F8081E9CFE091E501F5
:1009B00081E08E0F8093E5018091BB00F0E0EC5365
:1009C000FE4F80839091E5018091E4019817C8F271
:1009D00085E8D8CFE091E50181E08E0F8093E501B5
:1009E0008091BB00F0E0EC53FE4F80838091C30107
:1009F00081115CCF81E08093C20184EA8093BC00C6
:100A00001092C10126CF85EC8093BC001092C101E9
:100A10008091BF01803230F4E091BF01F0E0E156F7
:100A2000FE4F10826091BF0170E0E091E701F0910C
:100A3000E8018FE991E009951092BF010ACF109269
:100A4000C00134CFECEFF1E01382128288EE93E024
:100A5000A0E0B0E084839583A683B78324E031E0EF
:100A60003183208325EC30E03587248724EC30E087
:100A70003787268720EC30E0318B208B21EC30E06B
:100A8000338B228B22EC30E0358B248B26EC30E04C
:100A9000378B268B118E128E138E148EE9E9F2E0BD
:100AA0001382128284839583A683B78386E191E0C3
:100AB000918380830895789484B5826084BD84B5E1
:100AC000816084BD85B5826085BD85B5816085BD49
:100AD00080916E00816080936E0010928100809101
:100AE0008100826080938100809181008160809389
:100AF0008100809180008160809380008091B100AE
:100B000084608093B1008091B00081608093B000D8
:100B100080917A00846080937A0080917A0082606C
:100B200080937A0080917A00816080937A0080912E
:100B30007A00806880937A001092C100E0910C02E4
:100B4000F0910D0282E08083E0910802F0910902A9
:100B50001082E0910A02F0910B028FEC80831092D8
:100B60001402E0911002F091110286E08083E0917E
:100B70000E02F0910F02808180618083E0910E026D
:100B8000F0910F02808188608083E0910E02F091E5
:100B90000F02808180688083E0910E02F0910F0245
:100BA00080818F7D80831092EE011092ED01109272
:100BB000EC011092EB010E9438028EEC90E09093D1
:100BC000EA018093E9018AED90E09093E801809337
:100BD000E70180E88093BA0080E193E09093F00110
:100BE0008093EF018FE992E09093F2018093F101FD
:100BF0008CE391E00E94AC0289E391E00E94AC0298
:100C0000C0E0D0E02097F1F30E946E018823D1F379
:100C10000E940000F7CFEE0FFF1F0590F491E02D2A
:060C20000994F894FFCFD7
:100C260000000000A40104013101F101620140014C
:100C36005401000000008B0280029C0256027902D9
:100C460066025702436F6D616E646F20726563655D
:100C56006269646F3A203078000D0A00457363724A
:100C660061766F2049324320696E696369616C69F8
:060C76007A61646F2100A9
:00000001FF
