:020000040000FA
:100000000C9434000C9451000C9451000C94510049
:100010000C9451000C9451000C9451000C9451001C
:100020000C9451000C9451000C9451000C9451000C
:100030000C9451000C9451000C94BD000C94510090
:100040000C9451000C9451000C9451000C945100EC
:100050000C9451000C9451000C9451000C945100DC
:100060000C9451000C94510011241FBECFEFD8E026
:10007000DEBFCDBF12E0A0E0B1E0ECECF3E002C0E7
:1000800005900D92A035B107D9F722E0A0E5B2E0C6
:1000900001C01D92A435B207E1F70E94E2000C9462
:1000A000E4010C940000806480937C0087E88093D6
:1000B0007A0080917A00806480937A0080917A003F
:1000C00084FFFCCF80917A00806180937A008091D8
:1000D0007800909179000895F894609150027091A1
:1000E00051028091520290915302789408958F9218
:1000F0009F92AF92BF92CF92DF92EF92FF926B01ED
:100100007C010E946C004B015C010E946C0068192C
:1001100079098A099B096C157D058E059F05A8F351
:10012000FF90EF90DF90CF90BF90AF909F908F9017
:1001300008959091C00095FFFCCF8093C60008956C
:10014000CF93C82F82958F708A3048F0895C0E94C7
:1001500099008C2F8F70805DCF910C949900805DF9
:10016000F6CFCF93DF93EC018991882319F00E9499
:100170009900FACFDF91CF9108951F920F920FB699
:100180000F9211248F939F93AF93BF93809150024E
:1001900090915102A0915202B09153020196A11D7B
:1001A000B11D8093500290935102A0935202B093DC
:1001B0005302BF91AF919F918F910F900FBE0F90FF
:1001C0001F90189582E084BD93E095BD99EF97BD8F
:1001D00080936E00789488E48093B80084E08093E4
:1001E000BC001092C50087E68093C40088E080932D
:1001F000C10086E08093C20080E091E00E94B100DF
:1002000068EE73E080E090E00E94770060ED77E0B8
:1002100080E090E00E94770084EAA82E90E8992E72
:1002200024E8B22ED4E988B1806388B98AE191E0EC
:100230000E94B100A092BC000E946C006B017C0186
:1002400024E6C20ED11CE11CF11C8091BC0087FD8C
:1002500014C00E946C00C616D706E806F906A8F777
:1002600085E391E00E94B1001092BC0068EE73E05B
:1002700080E090E00E947700D6CFC091B900C87F9F
:10028000C83061F08EE491E00E94B1008C2F0E9492
:10029000A0008AEF91E00E94B100E8CF88E691E0EB
:1002A0000E94B10080E40E94A0008AEF91E00E94C9
:1002B000B1009092BB00B092BC000E946C006B0138
:1002C0007C01E4E6CE0ED11CE11CF11C8091BC0047
:1002D00087FD18C00E946C00C616D706E806F9060E
:1002E000A8F78EE791E00E94B10089E991E00E94B1
:1002F000B100D093BC0068EE73E080E090E00E9413
:100300007700E4CFC091B900C87FC83191F083EB8A
:1003100091E00E94B1008C2F0E94A0008AEF91E032
:100320000E94B10089E991E00E94B100D093BC0025
:100330009DCF85ED91E00E94B1000DEF11E0F80135
:1003400081918F018823E1F08093BB00B092BC00C3
:100350000E946C006B017C01F4E6CF0ED11CE11C05
:10036000F11C8091BC0087FD20C00E946C00C61665
:10037000D706E806F906A8F784E092E00E94B100EB
:1003800089E991E00E94B100D093BC0060ED77E074
:1003900080E090E00E94770090E080E00E945300AF
:1003A00081E090E00E9453003ECFC091B900C87F29
:1003B000C83229F28BE292E00E94B1008C2F0E9499
:1003C000A0008AEF91E0DACFF894FFCF4D65737407
:1003D00072652049324320696E696369616C697A8C
:1003E00061646F0D0A00456E7669616E646F20531B
:1003F0005441525420636F6E646974696F6E0D0AC4
:10040000004572726F3A2054696D656F7574206E85
:100410006F2053544152540D0A004572726F206E82
:100420006F2053544152542E205374617475733AA3
:1004300020307800456E7669616E646F20656E6469
:10044000657265636F3A2030780054696D656F7529
:1004500074206E6F20656E6465726563616D656E94
:10046000746F0D0A00456E7669616E646F20535497
:100470004F5020636F6E646974696F6E0D0A00459A
:1004800072726F206E6F20656E6465726563616D58
:10049000656E746F2E205374617475733A203078D2
:1004A00000436F6D756E69636163616F206573747E
:1004B0006162656C656369646120636F6D2073754B
:1004C000636573736F210D0A007373737373730025
:1004D0004572726F3A2054696D656F7574206E6154
:1004E000207472616E736D697373616F20646F2025
:1004F0006461646F0D0A004572726F20616F207431
:1005000072616E736D69746972206461646F2E200C
:0C0510005374617475733A203078000059
:107E0000112484B714BE81FFF0D085E080938100F7
:107E100082E08093C00088E18093C10086E0809377
:107E2000C20080E18093C4008EE0C9D0259A86E02C
:107E300020E33CEF91E0309385002093840096BBD3
:107E4000B09BFECF1D9AA8958150A9F7CC24DD24C4
:107E500088248394B5E0AB2EA1E19A2EF3E0BF2EE7
:107E6000A2D0813461F49FD0082FAFD0023811F036
:107E7000013811F484E001C083E08DD089C08234E0
:107E800011F484E103C0853419F485E0A6D080C0E4
:107E9000853579F488D0E82EFF2485D0082F10E0AE
:107EA000102F00270E291F29000F111F8ED06801E7
:107EB0006FC0863521F484E090D080E0DECF843638
:107EC00009F040C070D06FD0082F6DD080E0C81688
:107ED00080E7D80618F4F601B7BEE895C0E0D1E017
:107EE00062D089930C17E1F7F0E0CF16F0E7DF06D8
:107EF00018F0F601B7BEE89568D007B600FCFDCFD4
:107F0000A601A0E0B1E02C9130E011968C91119780
:107F100090E0982F8827822B932B1296FA010C0160
:107F200087BEE89511244E5F5F4FF1E0A038BF0790
:107F300051F7F601A7BEE89507B600FCFDCF97BE46
:107F4000E89526C08437B1F42ED02DD0F82E2BD052
:107F50003CD0F601EF2C8F010F5F1F4F84911BD097
:107F6000EA94F801C1F70894C11CD11CFA94CF0C13
:107F7000D11C0EC0853739F428D08EE10CD085E9AC
:107F80000AD08FE07ACF813511F488E018D01DD067
:107F900080E101D065CF982F8091C00085FFFCCF94
:107FA0009093C60008958091C00087FFFCCF809118
:107FB000C00084FD01C0A8958091C6000895E0E648
:107FC000F0E098E1908380830895EDDF803219F02E
:107FD00088E0F5DFFFCF84E1DECF1F93182FE3DFCA
:107FE0001150E9F7F2DF1F91089580E0E8DFEE27F6
:047FF000FF270994CA
:027FFE00040479
:00000001FF
