:100000000C9434000C9451000C9451000C94510049
:100010000C9451000C9451000C9451000C9451001C
:100020000C9451000C9451000C9451000C9451000C
:100030000C9451000C9451000C949B000C945100B2
:100040000C9451000C9451000C9451000C945100EC
:100050000C9451000C9451000C9451000C945100DC
:100060000C9451000C94510011241FBECFEFD8E026
:10007000DEBFCDBF11E0A0E0B1E0E2E4F3E002C0FA
:1000800005900D92AE3FB107D9F722E0AEEFB1E097
:1000900001C01D92A230B207E1F70E94C0000C948B
:1000A0009F010C9400000F931F93AB01BC01F894C7
:1000B0000091FE011091FF01209100023091010298
:1000C0007894F8948091FE019091FF01A091000234
:1000D000B09101027894801B910BA20BB30B841793
:1000E0009507A607B70768F31F910F9108959091A0
:1000F000C00095FFFCCF8093C6000895CF93C82F12
:1001000082958F708A3048F0895C0E9477008C2F2E
:100110008F70805DCF910C947700805DF6CFCF9388
:10012000DF93EC018991882319F00E947700FACFC0
:10013000DF91CF9108951F920F920FB60F92112465
:100140008F939F93AF93BF938091FE019091FF0196
:10015000A0910002B09101020196A11DB11D8093F2
:10016000FE019093FF01A0930002B0930102BF91A2
:10017000AF919F918F910F900FBE0F901F90189588
:1001800082E084BD93E095BD99EF97BD80936E00AA
:10019000789488E48093B80084E08093BC00109247
:1001A000C50087E68093C40088E08093C10086E0A4
:1001B0008093C20080E091E00E948F0068EE73E0BF
:1001C00080E090E00E94530060ED77E080E090E0F6
:1001D0000E94530014EA00E884E8B82ED4E988B1FC
:1001E000806388B98AE191E00E948F001093BC007F
:1001F000F8948091FE019091FF01A0910002B091CE
:10020000010278948C599F4FAF4FBF4F2091BC0093
:1002100027FD1CC0F8944091FE015091FF016091B0
:10022000000270910102789484179507A607B7071A
:1002300068F785E391E00E948F001092BC0068EEA1
:1002400073E080E090E00E945300C9CFC091B900F4
:10025000C87FC83061F08EE491E00E948F008C2F3F
:100260000E947E008AEF91E00E948F00E8CF88E62E
:1002700091E00E948F0080E40E947E008AEF91E06E
:100280000E948F000093BB00B092BC00F894C09015
:10029000FE01D090FF01E0900002F09001027894FE
:1002A00084E6C80ED11CE11CF11C8091BC0087FDC6
:1002B00020C0F8948091FE019091FF01A09100026E
:1002C000B09101027894C816D906EA06FB0668F7D1
:1002D0008EE791E00E948F0089E991E00E948F00F3
:1002E000D093BC0068EE73E080E090E00E94530081
:1002F000DCCFC091B900C87FC83191F083EB91E0A9
:100300000E948F008C2F0E947E008AEF91E00E9455
:100310008F0089E991E00E948F00D093BC008FCFBD
:1003200085ED91E00E948F0089E991E00E948F00A5
:10033000D093BC0060ED77E080E090E084CFF8944B
:02034000FFCFED
:100342004D65737472652049324320696E69636931
:10035200616C697A61646F0D0A00456E7669616E3F
:10036200646F20535441525420636F6E6469746900
:100372006F6E0D0A004572726F3A2054696D656F97
:100382007574206E6F2053544152540D0A00457209
:10039200726F206E6F2053544152542E2053746159
:1003A2007475733A20307800456E7669616E646FB9
:1003B20020656E64657265636F3A20307800546917
:1003C2006D656F7574206E6F20656E64657265630E
:1003D200616D656E746F0D0A00456E7669616E64BB
:1003E2006F2053544F5020636F6E646974696F6E4F
:1003F2000D0A004572726F206E6F20656E64657221
:100402006563616D656E746F2E20537461747573CC
:100412003A20307800436F6D756E69636163616F76
:10042200206573746162656C656369646120636FE2
:0E0432006D207375636573736F210D0A0000F2
:00000001FF
