:020000040000FA
:100000000C9458000C9480000C9480000C945907B8
:100010000C9480000C9480000C9480000C94800060
:100020000C9480000C9480000C9480000C94340795
:100030000C9480000C9480000C9480000C94800040
:100040000C9473050C9480000C94E3050C94BD058E
:100050000C9480000C9480000C9480000C94800020
:100060000C9415060C948000000000002500280068
:100070002B00040404040404040402020202020229
:10008000030303030303010204081020408001025C
:1000900004081020010204081020000000080002DB
:1000A0000100000304070000000000000000CD076D
:1000B00011241FBECFEFD8E0DEBFCDBF23E0A8E301
:1000C000B2E001C01D92A73BB207E1F712E0A0E049
:1000D000B1E0E8E8F2E202C005900D92A833B10762
:1000E000D9F710E0C8E5D0E004C02197FE010E94D6
:1000F000A90CC735D107C9F70E9406080C94421114
:100100000C940000FC01538D448D252F30E0842F8A
:1001100090E0821B930B541710F0CF96089501972F
:100120000895FC01918D828D981761F0A28DAE0F1C
:10013000BF2FB11D5D968C91928D9F5F9F73928FA3
:1001400090E008958FEF9FEF0895FC01918D828DCF
:10015000981731F0828DE80FF11D858D90E008959C
:100160008FEF9FEF0895FC01918D228D892F90E0F4
:10017000805C9F4F821B91098F7399270895FC0122
:10018000A48DA80FB92FB11DA35ABF4F2C91848DF8
:1001900090E001968F739927848FA689B7892C9355
:1001A000A089B1898C91837080648C93938D848DA8
:1001B000981306C00288F389E02D80818F7D8083AB
:1001C0000895EF92FF920F931F93CF93DF93EC016B
:1001D00081E0888F9B8D8C8D98131AC0E889F989EE
:1001E000808185FF15C09FB7F894EE89FF896083F1
:1001F000E889F98980818370806480839FBF81E072
:1002000090E0DF91CF911F910F91FF90EF900895B3
:10021000F62E0B8D10E00F5F1F4F0F731127E02E8E
:100220008C8D8E110CC00FB607FCFACFE889F989C6
:10023000808185FFF5CFCE010E94BF00F1CFEB8D0D
:10024000EC0FFD2FF11DE35AFF4FF0829FB7F8949A
:100250000B8FEA89FB8980818062CFCFCF93DF93B8
:10026000EC01888D8823B9F0AA89BB89E889F989CE
:100270008C9185FD03C0808186FD0DC00FB607FC03
:10028000F7CF8C9185FFF2CF808185FFEDCFCE0136
:100290000E94BF00E9CFDF91CF9108958AE093E0FB
:1002A0000E94B30021E0892B09F420E0822F0895F9
:1002B00080E090E0892B29F00E944E0181110C947E
:1002C0000000089590E0FC01E656FF4F2491FC01E8
:1002D000EA57FF4F3491FC01EE58FF4FE491EE23B3
:1002E000C9F0222339F0233001F1A8F4213019F1AB
:1002F000223029F1F0E0EE0FFF1FE859FF4FA591E2
:10030000B4918FB7F894EC91611126C030953E23DB
:100310003C938FBF08952730A9F02830C9F02430CE
:1003200049F7809180008F7D03C0809180008F7796
:1003300080938000DFCF84B58F7784BDDBCF84B519
:100340008F7DFBCF8091B0008F778093B000D2CFAC
:100350008091B0008F7DF9CF3E2BDACF3FB7F89474
:100360008091960290919702A0919802B091990283
:1003700026B5A89B05C02F3F19F00196A11DB11D00
:100380003FBFBA2FA92F982F8827BC01CD01620F3C
:10039000711D811D911D42E0660F771F881F991FF7
:1003A0004A95D1F7089580918F0290918E02891B12
:1003B000990B089508950895AF92BF92CF92DF925E
:1003C000EF92FF920F931F93CF93DF936C017B010A
:1003D0008B01040F151FEB015E01AE18BF08C0179B
:1003E000D10759F06991D601ED91FC910190F0810E
:1003F000E02DC6010995892B79F7C501DF91CF91D1
:100400001F910F91FF90EF90DF90CF90BF90AF9032
:10041000089520916102260F3327331F21323105C1
:10042000ECF420910403FC0190E080E0243069F0BA
:1004300082E00895A09161022191AC014F5B5D4F74
:10044000A40FB52FB11D2C930196861798F38091B8
:100450006102680F6093610280E0089581E0089571
:100460001092040381E08093E3021092DE0261E0C7
:1004700082E10E94620161E083E10E946201E9EB96
:10048000F0E080818E7F808380818D7F808388E40F
:100490008093B80085E48093BC000895CF93DF93E8
:1004A00091E0909340028823B9F0C091B800D091B8
:1004B000BA008091BC008A7B8093BC0060E082E13E
:1004C0000E94620160E083E10E9462010E943002AA
:1004D000D093BA00C093B800DF91CF910895CF9226
:1004E000DF92EF92FF920F931F93CF93DF93D82F5A
:1004F000C62F613208F098C00E94AE016B017C01EA
:100500008091040381116BC081E080930403809388
:10051000E3029FEF9093E2021092E1029C0F90930E
:10052000E0028093DF028091DF02DD0FD82BD093B1
:10053000DF028091DE02813009F078C01092DE0285
:100540000E94AE016B017C018091DF028093BB00B1
:100550008091060390910703A0910803B0910903CD
:10056000892B8A2B8B2BA1F00E94AE0100910603F0
:100570001091070320910803309109036C197D093C
:100580008E099F09061717072807390708F448C07E
:100590008091BC0083FDD8CF85EC8093BC000E9485
:1005A000AE016B017C0180910403813009F440C0ED
:1005B0008091E1028C1710F4C091E102EEEBF2E0C1
:1005C000A4EEB2E080E08C1355C08C2FDF91CF9168
:1005D0001F910F91FF90EF90DF90CF900895809141
:1005E000060390910703A0910803B0910903892B9A
:1005F0008A2B8B2B09F484CF0E94AE010091060355
:100600001091070320910803309109036C197D09AB
:100610008E099F09061717072807390708F070CFBA
:10062000809105030E944E02C0E0CFCF85EEB5CF8A
:100630008091060390910703A0910803B0910903EC
:10064000892B8A2B8B2B09F4AECF0E94AE0100912F
:1006500006031091070320910803309109036C19D8
:100660007D098E099F09061717072807390708F023
:100670009ACFD6CF91919D938F5FA5CFCF92DF92E6
:10068000EF92FF920F931F93CF93DF93D091BD0210
:1006900081E0D13208F09CC0C091BC020E94AE0142
:1006A0006B017C018091040381116CC082E0809316
:1006B000040381E08093E3028FEF8093E2021092C3
:1006C000E102D093E002ACE9B2E0EEEBF2E080E0D0
:1006D000D8138DC01092DF028091DF02CC0FC82B9F
:1006E000C093DF028091DE02813009F084C0109255
:1006F000DE020E94AE016B017C018091DF028093DB
:10070000BB008091060390910703A0910803B0916C
:100710000903892B8A2B8B2BA1F00E94AE0100913B
:1007200006031091070320910803309109036C1907
:100730007D098E099F09061717072807390708F44E
:1007400042C08091BC0083FDD8CF85EC8093BC0073
:100750000E94AE016B017C0180910403823009F498
:100760004CC08091E2028F3F09F469C08091E2029F
:10077000803209F466C08091E202803309F463C0DC
:1007800084E026C08091060390910703A09108039E
:10079000B0910903892B8A2B8B2B09F483CF0E94FC
:1007A000AE010091060310910703209108033091D8
:1007B00009036C197D098E099F0906171707280779
:1007C000390708F06FCF809105030E944E0285E043
:1007D00010929B021092BD0210929A02DF91CF916B
:1007E0001F910F91FF90EF90DF90CF9008959D9112
:1007F00091938F5F6DCF85EEA9CF80910603909185
:100800000703A0910803B0910903892B8A2B8B2B36
:1008100009F4A2CF0E94AE010091060310910703D4
:1008200020910803309109036C197D098E099F09F5
:10083000061717072807390708F08ECFC4CF80E0C6
:10084000C7CF82E0C5CF83E0C3CF0895E0918E0289
:1008500080918F02E81730F4F0E0EC51FD4F808179
:1008600090E008958FEF9FEF089590918E02809110
:100870008F022FEF3FEF981748F4E92FF0E0EC518B
:10088000FD4F208130E09F5F90938E02C901089553
:10089000CF92DF92EF92FF920F931F93CF93DF934C
:1008A0007C01CB018A0120919A02222389F0EB017D
:1008B0006B01C40ED51ECC15DD0569F06991D70119
:1008C000ED91FC910190F081E02DC7010995F3CFE6
:1008D000642F0E940902C801DF91CF911F910F91EF
:1008E000FF90EF90DF90CF900895CF93DF931F920A
:1008F000CDB7DEB7698320919A022223F9F02091C7
:10090000BD02203258F021E030E0FC013383228325
:1009100090E080E00F90DF91CF91089580919B024D
:10092000E82FF0E0E456FD4F998190838F5F80932C
:100930009B028093BD0281E090E0ECCF61E0CE01AC
:1009400001960E940902F7CF90E080E0089580644C
:1009500080937C0087E880937A0080917A0080649D
:1009600080937A0080917A0084FFFCCF80917A0096
:10097000806180937A008091780090917900089549
:10098000FC019191992339F08091C00085FFFCCF43
:100990009093C600F6CF0895FB0101900020E9F77F
:1009A0003197AF01461B570BDC01ED91FC910280A2
:1009B000F381E02D0994FC0180819181009711F071
:1009C0000C944B0D08950F931F93CF93DF93EC017D
:1009D00088819981009759F02A813B812617370732
:1009E00030F081E0DF91CF911F910F9108958B013D
:1009F0006F5F7F4F0E94D40D009759F099838883D1
:100A00001B830A832C813D81232B59F7FC01108223
:100A1000E8CF80E0E7CFEF92FF920F931F93CF9341
:100A2000DF9300D0CDB7DEB78C0169831A82FC0159
:100A3000E480F580FFEFEF1AFF0AB7010E94E3049C
:100A4000882381F0F8012081318184819581BE0164
:100A50006F5F7F4F820F931F0E949A0EF801F582FD
:100A6000E48281E00F900F90DF91CF911F910F9161
:100A7000FF90EF90089585ED8093BC008091060370
:100A800090910703A0910803B09109030796A11D57
:100A9000B11D23E0B695A795979587952A95D1F72F
:100AA0002091BC0024FD03C01092040308954091DE
:100AB0000603509107036091080370910903452BC9
:100AC000462B472B69F30097A105B10541F02AE2B7
:100AD0002A95F1F700C00197A109B109E1CF8091F2
:100AE00005030C944E021F920F920FB60F92112421
:100AF0002F933F938F939F93AF93BF9380919202D5
:100B000090919302A0919402B0919502309191023C
:100B100023E0230F2D3758F50196A11DB11D209319
:100B200091028093920290939302A0939402B093C7
:100B300095028091960290919702A0919802B091AF
:100B400099020196A11DB11D809396029093970280
:100B5000A0939802B0939902BF91AF919F918F910A
:100B60003F912F910F900FBE0F901F90189526E880
:100B7000230F0296A11DB11DD2CF1F920F920FB667
:100B80000F9211242F933F934F935F936F937F9313
:100B90008F939F93AF93BF93EF93FF938AE093E07C
:100BA0000E94BF00FF91EF91BF91AF919F918F91F4
:100BB0007F916F915F914F913F912F910F900FBE59
:100BC0000F901F9018951F920F920FB60F9211243D
:100BD0002F938F939F93EF93FF93E0911A03F091DC
:100BE0001B038081E0912003F091210382FD1BC053
:100BF0009081809123038F5F8F732091240382174C
:100C000041F0E0912303F0E0E65FFC4F958F809385
:100C10002303FF91EF919F918F912F910F900FBE22
:100C20000F901F9018958081F4CF1F920F920FB6EE
:100C30000F9211242F933F934F935F936F937F9362
:100C40008F939F93AF93BF93EF93FF938091B900DE
:100C5000887F803609F44AC0F0F5883209F4A7C0CD
:100C600018F5803109F49BC0B8F4882309F4F9C061
:100C7000883009F494C0FF91EF91BF91AF919F919B
:100C80008F917F916F915F914F913F912F910F9035
:100C90000FBE0F901F901895883109F488C08032DC
:100CA00051F78093E20214C0803409F49DC040F4EF
:100CB0008033B9F38833F9F68093E20285ECB0C053
:100CC000803509F485C0883509F496C0883499F6D2
:100CD0000E943B05D0CF883909F48CC038F588379D
:100CE00029F050F4883611F0803729F683E080939C
:100CF00004031092830257C0883809F47BC08039FE
:100D000019F0803809F0B7CF80918302803208F063
:100D100071C0E091830281E08E0F80938302809105
:100D2000BB00F0E0ED59FD4F80833DC0803B39F0C2
:100D3000E0F4803A09F479C0883A09F09CCF84E065
:100D4000809304031092620210926102E091860285
:100D5000F091870209958091610281110FC081E0B5
:100D6000809361021092410209C0803C09F4A6CF31
:100D7000883C09F4A3CF883B09F07DCFE091620263
:100D800081E08E0F80936202F0E0EF5BFD4F808187
:100D90008093BB00909162028091610229C0809192
:100DA000DF028093BB0085EC8093BC0064CF909100
:100DB000E1028091E002981758F5E091E10281E0AC
:100DC0008E0F8093E102F0E0E254FD4F8081E9CF85
:100DD000E091E10281E08E0F8093E1028091BB00FF
:100DE000F0E0E254FD4F80839091E1028091E002B7
:100DF0009817C8F285E8D8CFE091E10281E08E0F24
:100E00008093E1028091BB00F0E0E254FD4F8083CB
:100E10008091E30281115CCF81E08093DE0284EA5D
:100E20008093BC001092040326CF85EC8093BC0015
:100E30001092040380918302803230F4E0918302A7
:100E4000F0E0ED59FD4F10826091830270E0E09177
:100E50008402F091850283E692E009951092830264
:100E60000ACF1092E20234CF1F920F920FB60F9268
:100E700011248F939F93AF93BF9380913C029091E5
:100E80003D02A0913E02B0913F020196A11DB11D0D
:100E900080933C0290933D02A0933E02B0933F02A8
:100EA000BF91AF919F918F910F900FBE0F901F90A8
:100EB00018951F920F920FB60F921124CF92DF92C6
:100EC000EF92FF922F933F934F935F936F937F9394
:100ED0008F939F93AF93BF93EF93FF93C0903C0288
:100EE000D0903D02E0903E02F0903F0280913802A7
:100EF00090913902A0913A02B0913B02A70196016C
:100F0000281B390B4A0B5B0BDA01C901C397A105FA
:100F1000B10580F01C9B0EC080919002882339F1AE
:100F200010929002109201011092000182E192E071
:100F30000E94C004C0923802D0923902E0923A0274
:100F4000F0923B02FF91EF91BF91AF919F918F91F2
:100F50007F916F915F914F913F912F91FF90EF9013
:100F6000DF90CF900F900FBE0F901F90189581E0EB
:100F70008093900281E090E09093010180930001C2
:100F800062E272E08AE093E00E94CC0464E372E0E3
:100F90008AE093E00E94CC04CDCFEAE0F3E0138234
:100FA000128288EE93E0A0E0B0E084839583A6836C
:100FB000B7832CE031E03183208325EC30E03587A6
:100FC000248724EC30E03787268720EC30E0318B13
:100FD000208B21EC30E0338B228B22EC30E0358B00
:100FE000248B26EC30E0378B268B118E128E138EDD
:100FF000148EE7EAF3E01382128284839583A6833A
:10100000B7838EE191E0918380830895CF93DF933E
:10101000CDB7DEB7E8970FB6F894DEBF0FBECDBFF1
:10102000789484B5826084BD84B5816084BD85B5C3
:10103000826085BD85B5816085BD80916E008160CF
:1010400080936E0010928100809181008260809375
:101050008100809181008160809381008091800077
:101060008160809380008091B10084608093B100A2
:101070008091B00081608093B00080917A0084609C
:1010800080937A0080917A00826080937A008091C8
:101090007A00816080937A0080917A0080688093E2
:1010A0007A001092C10010928E0210928F0210925C
:1010B0009B021092BD020E9430028AED91E0909353
:1010C0008702809386028BED91E090938502809356
:1010D00084021092C50087E68093C40088E0809364
:1010E000C10086E08093C2002498809168008160EE
:1010F0008093680080916B00806180936B008CE22C
:1011000091E00E94C0048E010F5F1F4F92E4C92E30
:1011100091E0D92EFF24F39420E4E22E30E0232E38
:1011200030E0332E8091880290918902009709F077
:101130005CC080918B028F9380918A028F93DF92A3
:10114000CF921F930F930E94A10E81E090E09093A5
:101150008902809388020F900F900F900F900F904C
:101160000F90F0929A02E092BC0210929B021092B1
:10117000BD02B80187EA93E00E94CC040E943E03BE
:1011800060E280E40E946F02782E10928E028093BB
:101190008F021CAA1BAA1EAA1DAA18AE1FAA70E0C5
:1011A00060E0CE01C3960E94E3042BA93CA9811103
:1011B00032C02115310519F0C9010E944B0D1CAA3E
:1011C0001BAA18AE1FAA1EAA1DAA80918E0278160D
:1011D00051F187EA93E00E9435048A3021F1682FAB
:1011E000CE01C3960E940B05F0CF019709F0B9CF4D
:1011F00080918D028F9380918C028F9388E491E08F
:101200009F938F931F930F930E94A10E10928902B8
:1012100010928802A0CF18AE1FAA66E372E0C9013F
:101220000E949A0ED2CFCE01C3960E94DB04F092A8
:101230009A02E092BC0210929B021092BD0264E4FA
:1012400087EA93E00E9475040E943E0360E280E416
:101250000E946F02782E10928E0280938F021A8263
:1012600019821C821B821E821D8270E060E0C80110
:101270000E94E30429813A8181111BC021153105A7
:1012800019F0C9010E944B0D1A8219821E821D821B
:101290001C821B8280918E02781699F087EA93E077
:1012A0000E9435048A3069F0682FC8010E940B053E
:1012B000F1CF1E821D8266E372E0C9010E949A0E80
:1012C000E9CFC8010E94DB0490E080E00E94A704FF
:1012D000BC0190E080E00E94CF0A20E030E04FE7C0
:1012E00053E40E940C0B20E030EC4FE754E40E94E2
:1012F000010C0E94730C70938B0260938A0281E050
:1013000090E00E94A704BC0190E080E00E94CF0A18
:1013100020E030E04FE753E40E940C0B20E030EC7B
:101320004FE754E40E94010C0E94730C70938D02ED
:1013300060938C0210928000109281008091810055
:101340008860809381008091810083608093810018
:1013500089EF90E0909389008093880080916F00DE
:10136000826080936F008091900281116FC08091A4
:10137000000190910101892B09F068C081E090E0A3
:101380009093010180930001F0929A02E092BC02D6
:1013900010929B021092BD0263E487EA93E00E94E0
:1013A00075040E943E0360E280E40E946F02782E82
:1013B00010928E0280938F021A8219821C821B82E5
:1013C0001E821D8270E060E0C8010E94E304298152
:1013D0003A8181111BC02115310519F0C9010E9404
:1013E0004B0D1A8219821E821D821C821B828091E3
:1013F0008E02781699F087EA93E00E9435048A30CD
:1014000069F0682FC8010E940B05F1CF1E821D8272
:1014100066E372E0C9010E949A0EE9CF69807A8082
:101420008EE491E00E94C004C3010E94C00485E3E1
:1014300092E00E94C004C8010E94DB0491E6691694
:1014400095E77906C1F18CE891E037C08091900270
:10145000811136C00E94AE014B015C018CEB482E1D
:1014600082E0582E612C712C0E94AE016819790916
:101470008A099B09683E734081059105A8F381E0C4
:10148000481A51086108710898EE890E93E0991E78
:10149000A11CB11C411451046104710429F72114E9
:1014A000310409F43FCE0E944E01882309F43ACE5C
:1014B0000E94000037CE8EE691E00E94C004CACFA1
:1014C0008091000190910101019721F61092010194
:1014D00010920001F0929A02E092BC0210929B02DC
:1014E0001092BD0260E587EA93E00E9475040E94B5
:1014F0003E0360E280E40E946F02782E10928E021A
:1015000080938F021A8219821C821B821E821D8286
:1015100070E060E0C8010E94E30429813A818111F2
:101520001BC02115310519F0C9010E944B0D1A820B
:1015300019821E821D821C821B8280918E02781667
:1015400099F087EA93E00E9435048A3069F0682FA9
:10155000C8010E940B05F1CF1E821D8266E372E076
:10156000C9010E949A0EE9CF69807A8083EB91E0ED
:101570000E94C004C3010E94C00485E392E00E945F
:10158000C004C8010E94DB0480ED91E025E76216EB
:101590002FE6720609F491CF8FEE91E08ECFE8949A
:1015A00009C097FB3EF490958095709561957F4FAB
:1015B0008F4F9F4F9923A9F0F92F96E9BB27939559
:1015C000F695879577956795B795F111F8CFFAF469
:1015D000BB0F11F460FF1BC06F5F7F4F8F4F9F4F9A
:1015E00016C0882311F096E911C0772321F09EE8F8
:1015F000872F762F05C0662371F096E8862F70E05E
:1016000060E02AF09A95660F771F881FDAF7880F37
:101610009695879597F908950E941F0B0C94900B4F
:101620000E94820B38F00E94890B20F0952311F064
:101630000C94790B0C947F0B11240C94C40B0E9416
:10164000A10B70F3959FC1F3950F50E0551F629F5A
:10165000F001729FBB27F00DB11D639FAA27F00D0B
:10166000B11DAA1F649F6627B00DA11D661F829F32
:101670002227B00DA11D621F739FB00DA11D621F17
:10168000839FA00D611D221F749F3327A00D611D34
:10169000231F849F600D211D822F762F6A2F112416
:1016A0009F5750409AF0F1F088234AF0EE0FFF1F49
:1016B000BB1F661F771F881F91505040A9F79E3FA0
:1016C000510580F00C94790B0C94C40B5F3FE4F34C
:1016D000983ED4F3869577956795B795F795E795F6
:1016E0009F5FC1F7FE2B880F911D9695879597F9FF
:1016F000089597F99F6780E870E060E008959FEF94
:1017000080EC089500240A94161617061806090698
:10171000089500240A941216130614060506089567
:10172000092E0394000C11F4882352F0BB0F40F4EF
:10173000BF2B11F460FF04C06F5F7F4F8F4F9F4F2F
:10174000089557FD9058440F551F59F05F3F71F0B1
:101750004795880F97FB991F61F09F3F79F0879518
:101760000895121613061406551FF2CF4695F1DFA1
:1017700008C0161617061806991FF1CF8695710531
:10178000610508940895E894BB2766277727CB0165
:1017900097F908952F923F924F925F926F927F92A6
:1017A0008F929F92AF92BF92CF92DF92EF92FF9271
:1017B0000F931F93CF93DF93CDB7DEB7CA1BDB0B1D
:1017C0000FB6F894DEBF0FBECDBF09942A883988C2
:1017D00048885F846E847D848C849B84AA84B984C9
:1017E000C884DF80EE80FD800C811B81AA81B981D5
:1017F000CE0FD11D0FB6F894DEBF0FBECDBFED01E9
:1018000008950E94150C0C94900B0E94890B58F0BF
:101810000E94820B40F029F45F3F29F00C94790B71
:1018200051110C94C40B0C947F0B0E94A10B68F314
:101830009923B1F3552391F3951B550BBB27AA2789
:1018400062177307840738F09F5F5F4F220F331FC3
:10185000441FAA1FA9F335D00E2E3AF0E0E832D08B
:1018600091505040E695001CCAF72BD0FE2F29D08E
:10187000660F771F881FBB1F261737074807AB0760
:10188000B0E809F0BB0B802DBF01FF2793585F4FD5
:101890003AF09E3F510578F00C94790B0C94C40BF0
:1018A0005F3FE4F3983ED4F3869577956795B795B7
:1018B000F7959F5FC9F7880F911D9695879597F9C2
:1018C0000895E1E0660F771F881FBB1F621773073B
:1018D0008407BA0720F0621B730B840BBA0BEE1F50
:1018E00088F7E09508950E947A0C6894B1110C94E1
:1018F000C40B08950E94A90B88F09F5798F0B92F48
:101900009927B751B0F0E1F0660F771F881F991F34
:101910001AF0BA95C9F714C0B13091F00E94C30B08
:10192000B1E008950C94C30B672F782F8827B85F18
:1019300039F0B93FCCF3869577956795B395D9F78C
:101940003EF490958095709561957F4F8F4F9F4F96
:101950000895EE0FFF1F0590F491E02D09940F9369
:101960001F93CF93DF938230910510F482E090E0D3
:10197000E091B503F091B60330E020E0B0E0A0E0E4
:10198000309799F42115310509F44AC0281B390B09
:1019900024303105D8F58A819B816115710589F163
:1019A000FB0193838283FE0111C04081518102813A
:1019B000138148175907E0F04817590799F4109711
:1019C00061F012960C93129713961C933296CF01E6
:1019D000DF91CF911F910F9108950093B50310935C
:1019E000B603F4CF2115310551F04217530738F0F3
:1019F000A901DB019A01BD01DF01F801C1CFEF01AF
:101A0000F9CF9093B6038093B503CDCFFE01E20FDB
:101A1000F31F819391932250310939832883D7CFC3
:101A20002091B3033091B403232B41F4209104019E
:101A3000309105013093B4032093B3032091020148
:101A4000309103012115310541F42DB73EB7409186
:101A5000060150910701241B350BE091B303F0916F
:101A6000B403E217F307A0F42E1B3F0B2817390726
:101A700078F0AC014E5F5F4F2417350748F04E0FEA
:101A80005F1F5093B4034093B303819391939FCF0F
:101A9000F0E0E0E09CCFCF93DF930097E9F0FC010A
:101AA000329713821282A091B503B091B603ED0173
:101AB00030E020E01097A1F420813181820F931F44
:101AC0002091B3033091B4032817390709F061C09E
:101AD000F093B403E093B303DF91CF910895EA014B
:101AE000CE17DF07E8F54A815B819E01411551055C
:101AF000B1F7E901FB83EA8349915991C40FD51FDE
:101B0000EC17FD0761F4808191810296840F951F87
:101B1000E90199838883828193819B838A83F0E0A2
:101B2000E0E012968D919C9113970097B9F52D9155
:101B30003C911197CD010296820F931F2091B30320
:101B40003091B4032817390739F6309751F51092C0
:101B5000B6031092B503B093B403A093B303BCCF04
:101B6000D383C28340815181840F951FC817D90741
:101B700061F44E5F5F4F88819981480F591F5183EF
:101B800040838A819B81938382832115310509F0EB
:101B9000B0CFF093B603E093B5039ECFFD01DC0117
:101BA000C0CF13821282D7CFB0E0A0E0EAEDFDE013
:101BB0000C94CC0B8C01009751F4CB010E94AF0C1C
:101BC0008C01C801CDB7DEB7E0E10C94E80BFC0155
:101BD000E60FF71F9C0122503109E217F30708F4C2
:101BE0009DC0D901CD91DC911197C617D70798F008
:101BF000C530D10530F3CE0104978617970708F357
:101C0000C61BD70B2297C193D1936D937C93CF01C1
:101C10000E944B0DD6CF5B01AC1ABD0A4C018C0E55
:101C20009D1EA091B503B091B603512C412CF12C0F
:101C3000E12C109731F58091B3039091B40388158E
:101C4000990509F05CC04616570608F058C0809107
:101C5000020190910301009741F48DB79EB7409126
:101C6000060150910701841B950BE817F90708F04E
:101C700055C0F093B403E093B303F901718360831B
:101C8000A0CF8D919C91119712966C9012971396FC
:101C90007C901397A815B90559F56C0142E0C40E64
:101CA000D11CCA14DB0420F1AC014A195B09DA012A
:101CB0001296159780F06282738251834083D90116
:101CC0006D937C93E114F10471F0D7011396FC93AA
:101CD000EE93129776CF22968C0F9D1FF901918378
:101CE0008083F301EFCFF093B603E093B50369CFA0
:101CF0004816590608F42C017D01D3019ACFCB0177
:101D00000E94AF0C7C01009749F0AE01B8010E941F
:101D1000910EC8010E944B0D870153CF10E000E0E7
:101D200050CFFB01DC0102C001900D9241505040A8
:101D3000D8F70895FB01DC0101900D920020E1F736
:101D40000895AEE0B0E0E7EAFEE00C94D80B0D8910
:101D50001E8986E08C831A8309838FEF9FE79E8319
:101D60008D83AE01475E5F4F6F89788DCE010196FE
:101D70000E94C40E2F813885020F131FF8011082B4
:101D80002E96E4E00C94F40BABE0B0E0EAECFEE05D
:101D90000C94CA0B7C013B018A01FC01178216825C
:101DA000838181FFC8C1CE0101965C01F701938157
:101DB000F30193FD859193FF81913F01882309F4FD
:101DC00053C1853239F493FD859193FF81913F0191
:101DD000853229F4B70190E00E94B410E7CF912C2E
:101DE000212C312CFFE1F31538F08B3211F190F4F6
:101DF000803209F1833229F137FC3CC020ED280FF5
:101E00002A3050F536FE20C08AE0989E200D11241D
:101E1000922E06C08D3291F0803371F7689430F8BD
:101E2000F30193FD859193FF81913F018111DACFF9
:101E300021C0689431F8689432F8F2CF689433F88E
:101E4000EFCF689434F8ECCFEAE02E9E200D1124F9
:101E5000222E689435F8E4CF8E3229F436FC04C182
:101E6000689436F8DDCF8C3619F4689437F8D8CFFB
:101E70008836B1F2982F9F7D95549330E0F08336E9
:101E8000A1F18337C1F1833509F063C02801F2E085
:101E90004F0E511CF801C080D180692D70E036FCD6
:101EA00002C06FEF7FEFC6010E949E104C01689444
:101EB00037F882010AC00C5F1F4FFFE3F9838824C3
:101EC0008394912C6501E89437F833FE2DC0522C91
:101ED0008114910471F5552009F468CFB70180E2AF
:101EE00090E00E94B4105A94F6CFF8018081898363
:101EF0000E5F1F4FE4CF2801F2E04F0E511CF80196
:101F0000C080D180692D70E036FC02C06FEF7FEF9A
:101F1000C6010E94A9104C018201D5CFB70180E211
:101F200090E00E94B4102A942814190409F0B0F724
:101F3000CECFF60137FC859137FE81916F01B70155
:101F400090E00E94B41051105A94F1E08F1A910859
:101F5000BFCF843619F0893609F077C0F80137FE13
:101F60006BC060817181828193810C5F1F4FF32D63
:101F7000FF763F2E97FF09C09095809570956195EB
:101F80007F4F8F4F9F4F689437F82AE030E0A501CC
:101F90000E94E410C82ECA188C2C432C36FE0CC0AC
:101FA000E89440F8C91440F434FE05C032FC03C084
:101FB000F32DFE7E4F2E892C44FE95C0FE01EC0DC4
:101FC000F11D8081803309F087C0242D297E422EA7
:101FD000842D8870582E43FC95C040FE8FC09C2CE9
:101FE000821418F42C0C922C981844FE91C0B7015E
:101FF00080E390E00E94B41042FE09C088E790E0C0
:1020000041FE02C088E590E0B7010E94B410C914F7
:1020100008F48AC0CA94D12C9FEFC91AD90ACA0CF5
:10202000DB1CF60182916F01B70190E00E94B410B1
:10203000AC14BD04B1F74FCF60817181072E000C45
:10204000880B990B0E5F1F4F92CFD32CE894D4F8D6
:102050002AE030E0853739F1232D297FD22E8F36C3
:1020600001F148F48835A9F0F701868197812B9614
:10207000E2E10C94E60B803749F08837A9F7D4FEEB
:1020800002C06894D2F820E130E00DC06894D4F822
:10209000F6CF34FE03C0822F8660D82E20E132E0D6
:1020A00002C028E030E0F801D7FE0FC060817181E6
:1020B000828193810C5F1F4FA5010E94E410C82EFE
:1020C000CA183D2CE89437F867CF6081718190E0A1
:1020D00080E00E5F1F4FF0CF42FC02C0839478CFA8
:1020E0008394839475CF842D867809F471CFF6CFCD
:1020F000B70180E290E00E94B41083948214C0F390
:10210000512C73CF522C5818821408F46ECFF8CF8C
:10211000842D867809F47BCF8BE241FE80E247FC78
:102120008DE2B70190E071CFB70180E390E00E94AB
:10213000B4109A946CCF8FEF9FEF99CFFC0105906C
:10214000615070400110D8F7809590958E0F9F1FB9
:102150000895FC016150704001900110D8F78095FE
:1021600090958E0F9F1F08950F931F93CF93DF932A
:10217000182F092FEB018B8181FD09C01FEF0FEF95
:10218000812F902FDF91CF911F910F91089582FFA2
:1021900014C02E813F818C819D81281739073CF422
:1021A000E881F981CF0101969983888310838E811C
:1021B0009F8101969F838E83E3CFE885F985812FE8
:1021C0000995892BA1F3DACFFA01AA27283051F11A
:1021D000203181F1E8946F936E7F6E5F7F4F8F4F58
:1021E0009F4FAF4FB1E03ED0B4E03CD0670F781FB7
:1021F000891F9A1FA11D680F791F8A1F911DA11D9C
:102200006A0F711D811D911DA11D20D009F46894D4
:102210003F912AE0269F11243019305D3193DEF67C
:10222000CF010895462F4770405D4193B3E00FD032
:10223000C9F7F6CF462F4F70405D4A3318F0495D1D
:1022400031FD4052419302D0A9F7EACFB4E0A69500
:102250009795879577956795BA95C9F70097610522
:10226000710508959B01AC010A2E06945795479578
:1022700037952795BA95C9F7620F731F841F951F6D
:10228000A01D0895F894FFCF01000000B70380005F
:1022900000000000E100DC0182002E01B30091008B
:1022A000A5000000000075044804A4042504D3011F
:1022B000350426044D6573747265204932432069E4
:1022C0006E69636961646F2E0A0050313A256400BB
:1022D00050323A256400526573706F7374612064E4
:1022E0006F206573637261766F20636F6E74696EC1
:1022F0007561723A20005061726164612064657397
:10230000666569746120636F6D20737563657373AF
:102310006F210A004E616F20666F6920706F7373C2
:102320006976656C20636F6E74696E756172206189
:102330002070726F647563616F0A00526573706F0D
:1023400073746120646F206573637261766F2070AF
:1023500061726164613A200050617261646120724F
:1023600065616C697A61646120636F6D2073756368
:102370006573736F210A004E616F20666F6920706C
:102380006F73736976656C20706172617220612071
:1023900070726F647563616F0A005061726164618D
:1023A000206465736665697461005061726164617F
:1023B00020736F6C69636974616461000D0A0000C9
:107E0000112484B714BE81FFF0D085E080938100F7
:107E100082E08093C00088E18093C10086E0809377
:107E2000C20080E18093C4008EE0C9D0259A86E02C
:107E300020E33CEF91E0309385002093840096BBD3
:107E4000B09BFECF1D9AA8958150A9F7CC24DD24C4
:107E500088248394B5E0AB2EA1E19A2EF3E0BF2EE7
:107E6000A2D0813461F49FD0082FAFD0023811F036
:107E7000013811F484E001C083E08DD089C08234E0
:107E800011F484E103C0853419F485E0A6D080C0E4
:107E9000853579F488D0E82EFF2485D0082F10E0AE
:107EA000102F00270E291F29000F111F8ED06801E7
:107EB0006FC0863521F484E090D080E0DECF843638
:107EC00009F040C070D06FD0082F6DD080E0C81688
:107ED00080E7D80618F4F601B7BEE895C0E0D1E017
:107EE00062D089930C17E1F7F0E0CF16F0E7DF06D8
:107EF00018F0F601B7BEE89568D007B600FCFDCFD4
:107F0000A601A0E0B1E02C9130E011968C91119780
:107F100090E0982F8827822B932B1296FA010C0160
:107F200087BEE89511244E5F5F4FF1E0A038BF0790
:107F300051F7F601A7BEE89507B600FCFDCF97BE46
:107F4000E89526C08437B1F42ED02DD0F82E2BD052
:107F50003CD0F601EF2C8F010F5F1F4F84911BD097
:107F6000EA94F801C1F70894C11CD11CFA94CF0C13
:107F7000D11C0EC0853739F428D08EE10CD085E9AC
:107F80000AD08FE07ACF813511F488E018D01DD067
:107F900080E101D065CF982F8091C00085FFFCCF94
:107FA0009093C60008958091C00087FFFCCF809118
:107FB000C00084FD01C0A8958091C6000895E0E648
:107FC000F0E098E1908380830895EDDF803219F02E
:107FD00088E0F5DFFFCF84E1DECF1F93182FE3DFCA
:107FE0001150E9F7F2DF1F91089580E0E8DFEE27F6
:047FF000FF270994CA
:027FFE00040479
:00000001FF
