:100000000C9434000C9451000C9451000C94510049
:100010000C9451000C9451000C9451000C9451001C
:100020000C9451000C9451000C9451000C9451000C
:100030000C9451000C9451000C94A8000C945100A5
:100040000C9451000C9451000C9451000C945100EC
:100050000C9451000C9451000C9451000C945100DC
:100060000C9451000C94510011241FBECFEFD8E026
:10007000DEBFCDBF12E0A0E0B1E0EEEBF3E002C0E6
:1000800005900D92AA34B107D9F722E0AAE4B2E0B4
:1000900001C01D92AE34B207E1F70E94CD000C946E
:1000A000DD010C940000F89460914A0270914B02BB
:1000B00080914C0290914D02789408958F929F9276
:1000C000AF92BF92CF92DF92EF92FF926B017C01D1
:1000D0000E9453004B015C010E945300681979098A
:1000E0008A099B096C157D058E059F05A8F3FF9075
:1000F000EF90DF90CF90BF90AF909F908F9008953A
:100100009091C00095FFFCCF8093C6000895CF93D7
:10011000C82F82958F708A3058F0895C0E948000C9
:100120008C2F8F708A3034F0895CCF910C948000D2
:10013000805DF4CF805DF9CFCF93DF93EC0189919F
:10014000882319F00E948000FACFDF91CF910895A3
:100150001F920F920FB60F9211248F939F93AF931C
:10016000BF9380914A0290914B02A0914C02B091B2
:100170004D020196A11DB11D80934A0290934B023E
:10018000A0934C02B0934D02BF91AF919F918F917C
:100190000F900FBE0F901F90189582E084BD93E0E2
:1001A00095BD99EF97BD80936E00789488E4809315
:1001B000B80084E08093BC001092C50087E680936D
:1001C000C40088E08093C10086E08093C20082E092
:1001D00091E00E949C0068EE73E080E090E00E9455
:1001E0005E0060ED77E080E090E00E945E0004EA4F
:1001F00080E8F82E14E8D4E997E8E92E88B1806306
:1002000088B98CE191E00E949C000093BC000E94A0
:1002100053004B015C0124E6820E911CA11CB11C11
:100220008091BC0087FD14C00E945300861697067B
:10023000A806B906A8F787E391E00E949C001092F7
:10024000BC0068EE73E080E090E00E945E00D6CFD4
:10025000C091B900C87FC83061F080E591E00E948C
:100260009C008C2F0E9487008CEF91E00E949C00E4
:10027000E8CF8AE691E00E949C0080E40E9487001B
:100280008CEF91E00E949C00F092BB001093BC00A8
:100290000E9453004B015C0124E6820E911CA11CBC
:1002A000B11C8091BC0087FD18C00E9453008616C7
:1002B0009706A806B906A8F780E891E00E949C007E
:1002C0008BE991E00E949C00D093BC0068EE73E043
:1002D00080E090E00E945E00E4CFC091B900C87F4A
:1002E000C83191F085EB91E00E949C008C2F0E9418
:1002F00087008CEF91E00E949C008BE991E00E94C6
:100300009C00D093BC009DCF87ED91E00E949C00A3
:10031000809100018093BB001093BC000E945300A9
:100320004B015C0124E6820E911CA11CB11C809142
:10033000BC0087FD33C00E94530086169706A806AE
:10034000B906A8F78FEF91E00E949C008BE991E03D
:100350000E949C00D093BC0060ED77E080E090E0CC
:100360000E945E0080E480937C00E0927A0080919D
:100370007A00806480937A0080917A0084FFFCCFB9
:1003800080917A00806180937A00809178009091CA
:100390007900909301018093000130CFC091B900A2
:1003A000C87FC83299F286E292E00E949C008C2FAE
:0E03B0000E9487008CEF91E0C7CFF894FFCF3A
:1003BE0004004D65737472652049324320696E697D
:1003CE006369616C697A61646F0D0A00456E7669C6
:1003DE00616E646F20535441525420636F6E646992
:1003EE0074696F6E0D0A004572726F3A2054696D12
:1003FE00656F7574206E6F2053544152540D0A0070
:10040E004572726F206E6F2053544152542E2053FA
:10041E0074617475733A20307800456E7669616E3A
:10042E00646F20656E64657265636F3A2030780084
:10043E0054696D656F7574206E6F20656E6465729C
:10044E006563616D656E746F0D0A00456E76696148
:10045E006E646F2053544F5020636F6E64697469DD
:10046E006F6E0D0A004572726F206E6F20656E649E
:10047E0065726563616D656E746F2E205374617461
:10048E0075733A20307800436F6D756E69636163E2
:10049E00616F206573746162656C65636964612068
:1004AE00636F6D207375636573736F210D0A00455D
:1004BE0072726F3A2054696D656F7574206E61208B
:1004CE007472616E736D697373616F20646F2064F3
:1004DE0061646F0D0A004572726F20616F20747235
:1004EE00616E736D69746972206461646F2E20533E
:0A04FE0074617475733A20307800C1
:00000001FF
