:100000000C9434000C9451000C9451000C94510049
:100010000C9451000C9451000C9451000C9451001C
:100020000C9451000C9451000C9451000C9451000C
:100030000C9451000C9451000C949B000C945100B2
:100040000C9451000C9451000C9451000C945100EC
:100050000C9451000C9451000C9451000C945100DC
:100060000C9451000C94510011241FBECFEFD8E026
:10007000DEBFCDBF12E0A0E0B1E0EEE5F4E002C0EB
:1000800005900D92AA30B107D9F722E0AAE0B2E0BC
:1000900001C01D92A031B207E1F70E94C0000C948C
:1000A0002D020C9400000F931F93AB01BC01F89438
:1000B00000910A0210910B0220910C0230910D0266
:1000C0007894F89480910A0290910B02A0910C020E
:1000D000B0910D027894801B910BA20BB30B841787
:1000E0009507A607B70768F31F910F9108959091A0
:1000F000C00095FFFCCF8093C6000895CF93C82F12
:1001000082958F708A3048F0895C0E9477008C2F2E
:100110008F70805DCF910C947700805DF6CFCF9388
:10012000DF93EC018991882319F00E947700FACFC0
:10013000DF91CF9108951F920F920FB60F92112465
:100140008F939F93AF93BF9380910A0290910B027C
:10015000A0910C02B0910D020196A11DB11D8093DA
:100160000A0290930B02A0930C02B0930D02BF9170
:10017000AF919F918F910F900FBE0F901F90189588
:10018000CF93DF93CDB7DEB72A970FB6F894DEBFD3
:100190000FBECDBF82E084BD93E095BD99EF97BDC2
:1001A00080936E00789488E48093B80084E0809314
:1001B000BC001092C50087E68093C40088E080935D
:1001C000C10086E08093C20080E091E00E948F0031
:1001D00068EE73E080E090E00E94530060ED77E00D
:1001E00080E090E00E94530003E487E8982EEE241C
:1001F000E394F12C22E0C22ED12C34EA832E40E885
:10020000342E54E8252E14E96AE0A62EB12C009372
:100210007C0090927A0080917A00806480937A00CA
:1002200080917A0084FFFCCF80917A008061809376
:100230007A008091780090917900883323E09207CA
:100240000CF43BC0D0920F02C0920E0288B18063C2
:1002500088B98AE191E00E948F008092BC00F894F6
:1002600080910A0290910B02A0910C02B0910D02B4
:1002700078948C599F4FAF4FBF4F2091BC0027FD02
:1002800029C0F89440910A0250910B0260910C022F
:1002900070910D02789484179507A607B70768F741
:1002A00085E391E00E948F001092BC0068EE73E03D
:1002B00080E090E00E945300AACF883C91052CF486
:1002C00010920F0210920E02C1CFF0920F02E09234
:1002D0000E02BCCF8091B900887F782E38E083175A
:1002E00061F08EE491E00E948F00872D0E947E00D5
:1002F00087E092E00E948F00D9CF88E691E00E94CB
:100300008F0080E40E947E0087E092E00E948F00D0
:100310003092BB002092BC00F89440900A025090AA
:100320000B0260900C0270900D02789484E6480EE7
:10033000511C611C711C8091BC0087FD20C0F89489
:1003400080910A0290910B02A0910C02B0910D02D3
:100350007894481659066A067B0668F78EE791E09E
:100360000E948F0089E991E00E948F001093BC00E9
:1003700068EE73E080E090E00E945300DCCF809153
:10038000B900887F782E28E1821791F083EB91E005
:100390000E948F00872D0E947E0087E092E00E94DD
:1003A0008F0089E991E00E948F001093BC007ECFFE
:1003B00085ED91E00E948F008DEF91E00E948F000B
:1003C00080910E0290910F02E0E0009791F480E39B
:1003D0000E94770086E092E00E948F0089E991E018
:1003E0000E948F001093BC0060ED77E080E090E009
:1003F00061CF772473947E0E21E030E02C0F3D1FF7
:100400002E0F311DF901B5010E941902805D808314
:10041000CB01E72D009769F77720E1F27A94E1E0CC
:10042000F0E0EC0FFD1FE70DF11D80810E947700C9
:10043000F3CFAA1BBB1B51E107C0AA1FBB1FA61706
:10044000B70710F0A61BB70B881F991F5A95A9F77D
:0E04500080959095BC01CD010895F894FFCFE2
:10045E004D65737472652049324320696E69636914
:10046E00616C697A61646F0D0A00456E7669616E22
:10047E00646F20535441525420636F6E64697469E3
:10048E006F6E0D0A004572726F3A2054696D656F7A
:10049E007574206E6F2053544152540D0A004572EC
:1004AE00726F206E6F2053544152542E205374613C
:1004BE007475733A20307800456E7669616E646F9C
:1004CE0020656E64657265636F3A203078005469FA
:1004DE006D656F7574206E6F20656E6465726563F1
:1004EE00616D656E746F0D0A00456E7669616E649E
:1004FE006F2053544F5020636F6E646974696F6E32
:10050E000D0A004572726F206E6F20656E64657203
:10051E006563616D656E746F2E20537461747573AF
:10052E003A20307800436F6D756E69636163616F59
:10053E00206573746162656C656369646120636FC5
:10054E006D207375636573736F210D0A00204E69FC
:0A055E0076656C3A2000200D0A00BB
:00000001FF
