:100000000C9458000C9480000C9480000C94800098
:100010000C9480000C9480000C9480000C94800060
:100020000C9480000C9480000C9480000C94800050
:100030000C9480000C9480000C9480000C94800040
:100040000C9436030C9480000C94A6030C9480034B
:100050000C9480000C9480000C9480000C94800020
:100060000C94D8030C9480000000000025002800A8
:100070002B00040404040404040402020202020229
:10008000030303030303010204081020408001025C
:1000900004081020010204081020000000080002DB
:1000A0000100000304070000000000000000F70446
:1000B00011241FBECFEFD8E0DEBFCDBF11E0A0E01E
:1000C000B1E0EEE8FFE002C005900D92A034B10768
:1000D000D9F722E0A0E4B1E001C01D92AC3AB2072A
:1000E000E1F710E0C8E5D0E004C02197FE010E94CE
:1000F000BF07C735D107C9F70E9430050C94C50763
:100100000C94000090E0FC01E656FF4F2491FC01A6
:10011000EA57FF4F3491FC01EE58FF4FE491EE2374
:10012000C9F0222339F0233001F1A8F4213019F16C
:10013000223029F1F0E0EE0FFF1FE859FF4FA591A3
:10014000B4918FB7F894EC91611126C030953E239D
:100150003C938FBF08952730A9F02830C9F0243090
:1001600049F7809180008F7D03C0809180008F7758
:1001700080938000DFCF84B58F7784BDDBCF84B5DB
:100180008F7DFBCF8091B0008F778093B000D2CF6E
:100190008091B0008F7DF9CF3E2BDACF3FB7F89436
:1001A0008091FF0190910002A0910102B0910202A2
:1001B00026B5A89B05C02F3F19F00196A11DB11DC2
:1001C0003FBFBA2FA92F982F8827BC01CD01620FFE
:1001D000711D811D911D42E0660F771F881F991FB9
:1001E0004A95D1F708958091F9019091F801891B02
:1001F000990B089508950895AF92BF92CF92DF9220
:10020000EF92FF920F931F93CF93DF936C017B01CB
:100210008B01040F151FEB015E01AE18BF08C0175C
:10022000D10759F06991D601ED91FC910190F081CF
:10023000E02DC6010995892B79F7C501DF91CF9192
:100240001F910F91FF90EF90DF90CF90BF90AF90F4
:100250000895FC01538D448D252F30E0842F90E0CC
:10026000821B930B541710F0CF96089501970895B1
:10027000FC01918D828D981761F0A28DAE0FBF2F7A
:10028000B11D5D968C91928D9F5F9F73928F90E0D0
:1002900008958FEF9FEF0895FC01918D828D98173F
:1002A00031F0828DE80FF11D858D90E008958FEF7C
:1002B0009FEF0895FC01918D228D892F90E0805C45
:1002C0009F4F821B91098F739927089583E092E0D5
:1002D0000E945A0121E0892B09F420E0822F089521
:1002E00080E090E0892B29F00E94660181110C9436
:1002F00000000895FC01A48DA80FB92FB11DA35AC9
:10030000BF4F2C91848D90E001968F739927848F35
:10031000A689B7892C93A089B1898C918370806458
:100320008C93938D848D981306C00288F389E02DF9
:1003300080818F7D80830895EF92FF920F931F93AA
:10034000CF93DF93EC0181E0888F9B8D8C8D981388
:100350001AC0E889F989808185FF15C09FB7F89494
:10036000EE89FF896083E889F989808183708064E0
:1003700080839FBF81E090E0DF91CF911F910F912B
:10038000FF90EF900895F62E0B8D10E00F5F1F4F3A
:100390000F731127E02E8C8D8E110CC00FB607FC49
:1003A000FACFE889F989808185FFF5CFCE010E94D7
:1003B0007A01F1CFEB8DEC0FFD2FF11DE35AFF4FCA
:1003C000F0829FB7F8940B8FEA89FB898081806265
:1003D000CFCFCF93DF93EC01888D8823B9F0AA8922
:1003E000BB89E889F9898C9185FD03C0808186FDF0
:1003F0000DC00FB607FCF7CF8C9185FFF2CF80813F
:1004000085FFEDCFCE010E947A01E9CFDF91CF9138
:10041000089520916101260F3327331F21323105C2
:10042000ECF42091D201FC0190E080E0243069F0EE
:1004300082E00895A09161012191AC014F5B5E4F74
:10044000A40FB52FB11D2C930196861798F38091B8
:100450006101680F6093610180E0089581E0089573
:100460001092D20181E08093D1011092CC0161E021
:1004700082E10E94820061E083E10E948200E9EB58
:10048000F0E080818E7F808380818D7F808388E40F
:100490008093B80085E48093BC000895CF93DF93E8
:1004A00091E0909340018823B9F0C091B800D091B9
:1004B000BA008091BC008A7B8093BC0060E082E13E
:1004C0000E94820060E083E10E9482000E9430026C
:1004D000D093BA00C093B800DF91CF9108950895EA
:1004E000E091F8018091F901E81730F4F0E0E8526A
:1004F000FE4F808190E008958FEF9FEF08959091D7
:10050000F8018091F9012FEF3FEF981748F4E92F98
:10051000F0E0E852FE4F208130E09F5F9093F801B9
:10052000C9010895CF92DF92EF92FF920F931F932C
:10053000CF93DF937C01CB018A0120918801222394
:1005400089F0EB016B01C40ED51ECC15DD0569F0F9
:100550006991D701ED91FC910190F081E02DC701E7
:100560000995F3CF642F0E940902C801DF91CF9152
:100570001F910F91FF90EF90DF90CF900895CF9350
:10058000DF931F92CDB7DEB76983209188012223C4
:10059000F9F02091AB01203258F021E030E0FC016D
:1005A0003383228390E080E00F90DF91CF91089514
:1005B00080918901E82FF0E0E657FE4F9981908302
:1005C0008F5F809389018093AB0181E090E0ECCF55
:1005D00061E0CE0101960E940902F7CF90E080E031
:1005E0000895FC0101900020E9F73197AF01481B05
:1005F000590BBC0183E092E00C94FC0085ED8093E4
:10060000BC008091D4019091D501A091D601B09108
:10061000D7010796A11DB11D23E0B695A795979523
:1006200087952A95D1F72091BC0024FD03C0109234
:10063000D20108954091D4015091D5016091D60125
:100640007091D701452B462B472B69F30097A105E5
:10065000B10541F02AE22A95F1F700C00197A109FE
:10066000B109E1CF8091D3010C944E021F920F92F9
:100670000FB60F9211242F933F938F939F93AF93B5
:10068000BF938091FB019091FC01A091FD01B0917D
:10069000FE013091FA0123E0230F2D3758F5019622
:1006A000A11DB11D2093FA018093FB019093FC01E1
:1006B000A093FD01B093FE018091FF019091000293
:1006C000A0910102B09102020196A11DB11D80937B
:1006D000FF0190930002A0930102B0930202BF9128
:1006E000AF919F918F913F912F910F900FBE0F90DF
:1006F0001F90189526E8230F0296A11DB11DD2CF99
:100700001F920F920FB60F9211242F933F934F9386
:100710005F936F937F938F939F93AF93BF93EF9369
:10072000FF9383E092E00E947A01FF91EF91BF91E5
:10073000AF919F918F917F916F915F914F913F9179
:100740002F910F900FBE0F901F9018951F920F9230
:100750000FB60F9211242F938F939F93EF93FF93D4
:10076000E0911302F09114028081E0911902F0915E
:100770001A0282FD1BC0908180911C028F5F8F73D3
:1007800020911D02821741F0E0911C02F0E0ED5F24
:10079000FD4F958F80931C02FF91EF919F918F9158
:1007A0002F910F900FBE0F901F9018958081F4CF5E
:1007B0001F920F920FB60F9211242F933F934F93D6
:1007C0005F936F937F938F939F93AF93BF93EF93B9
:1007D000FF938091B900887F803609F44AC0F0F514
:1007E000883209F4A7C018F5803109F49BC0B8F429
:1007F000882309F4F9C0883009F494C0FF91EF917F
:10080000BF91AF919F918F917F916F915F914F9128
:100810003F912F910F900FBE0F901F901895883128
:1008200009F488C0803251F78093D00114C080341D
:1008300009F49DC040F48033B9F38833F9F680930E
:10084000D00185ECB0C0803509F485C0883509F445
:1008500096C0883499F60E94FE02D0CF883909F4F8
:100860008CC038F5883729F050F4883611F080377D
:1008700029F683E08093D2011092830157C0883813
:1008800009F47BC0803919F0803809F0B7CF809126
:100890008301803208F071C0E091830181E08E0F06
:1008A000809383018091BB00F0E0ED59FE4F80837F
:1008B0003DC0803B39F0E0F4803A09F479C0883AD1
:1008C00009F09CCF84E08093D201109262011092D3
:1008D0006101E0918601F0918701099580916101A4
:1008E00081110FC081E0809361011092410109C024
:1008F000803C09F4A6CF883C09F4A3CF883B09F0DB
:100900007DCFE091620181E08E0F80936201F0E083
:10091000EF5BFE4F80818093BB00909162018091DC
:10092000610129C08091CD018093BB0085EC80934B
:10093000BC0064CF9091CF018091CE01981758F5FB
:10094000E091CF0181E08E0F8093CF01F0E0E4557C
:10095000FE4F8081E9CFE091CF0181E08E0F80933F
:10096000CF018091BB00F0E0E455FE4F8083909171
:10097000CF018091CE019817C8F285E8D8CFE091D9
:10098000CF0181E08E0F8093CF018091BB00F0E01A
:10099000E455FE4F80838091D10181115CCF81E0CD
:1009A0008093CC0184EA8093BC001092D20126CFC0
:1009B00085EC8093BC001092D2018091830180323B
:1009C00030F4E0918301F0E0ED59FE4F1082609128
:1009D000830170E0E0918401F091850183E691E06C
:1009E0000995109283010ACF1092D00134CFE3E031
:1009F000F2E01382128288EE93E0A0E0B0E08483FC
:100A00009583A683B78324E031E03183208325ECEE
:100A100030E03587248724EC30E03787268720ECC8
:100A200030E0318B208B21EC30E0338B228B22ECB9
:100A300030E0358B248B26EC30E0378B268B118E03
:100A4000128E138E148EE0EAF2E0138212828483F7
:100A50009583A683B78386E191E09183808308958F
:100A6000CF93DF93CDB7DEB7A1970FB6F894DEBF73
:100A70000FBECDBF789484B5826084BD84B581609B
:100A800084BD85B5826085BD85B5816085BD809159
:100A90006E00816080936E001092810080918100D1
:100AA00082608093810080918100816080938100C9
:100AB000809180008160809380008091B10084608B
:100AC0008093B1008091B00081608093B0008091EC
:100AD0007A00846080937A0080917A0082608093AB
:100AE0007A0080917A00816080937A0080917A0008
:100AF000806880937A001092C1001092F8011092E1
:100B0000F9010E9430028AEF90E090938701809370
:100B100086018BEF90E09093850180938401E091B2
:100B20001302F091140282E08083E0910F02F091B1
:100B300010021082E0911102F09112028FEC80837A
:100B400010921B02E0911702F091180286E0808358
:100B5000E0911502F0911602808180618083E0911E
:100B60001502F0911602808188608083E091150261
:100B7000F0911602808180688083E0911502F091E7
:100B8000160280818F7D808311E020E4322E05EEF5
:100B900035EC932E40E0A42E40E0B42E52E0252EFA
:100BA00088248A94109388013092AA0110928901B6
:100BB0001092AB0161E080EA92E00E94BF02F090E7
:100BC000AB0120E22F1508F48CC00E94CE002B014F
:100BD0003C018091D20181115FC02092D20110931B
:100BE000D1018092D0011092CF01F092CE01AAE8FB
:100BF000B1E0ECEAF1E0F812E3C01092CD0180918F
:100C0000CD0180688093CD018091CC01813009F0C5
:100C1000DBC01092CC010E94CE006B017C01809160
:100C2000CD018093BB008091D4019091D501A0911A
:100C3000D601B091D701892B8A2B8B2B99F00E947A
:100C4000CE004090D4015090D5016090D6017090B4
:100C5000D7016C197D098E099F094616570668064B
:100C60007906D8F18091BC0083FDD9CF9092BC0069
:100C70000E94CE006B017C018091D201823009F488
:100C8000A6C08091D0018F3F61F18091D001803268
:100C900041F18091D00125C08091D4019091D5017E
:100CA000A091D601B091D701892B8A2B8B2B09F407
:100CB00090CF0E94CE002091D4013091D501409177
:100CC000D6015091D701641975098609970926172D
:100CD00037074807590708F07CCF8091D3010E945D
:100CE0004E02109289011092AB01109288010E946D
:100CF000CE006B017C018091D20181118AC01093DA
:100D0000D2011093D1018092D0011092CF011092A4
:100D1000CE011093CD018091CD0180628093CD01F1
:100D20008091CC01813009F001C11092CC010E9468
:100D3000CE006B017C018091CD018093BB0080913E
:100D4000D4019091D501A091D601B091D701892B02
:100D50008A2B8B2BA1F00E94CE004090D4015090A2
:100D6000D5016090D6017090D7016C197D098E096C
:100D70009F09461657066806790608F46BC08091ED
:100D8000BC0083FDD8CF9092BC000E94CE006B01C6
:100D90007C018091D201813009F4CBC08091CF01D8
:100DA0008111E9C08091CF01ACEAB1E0E8EDF1E05A
:100DB00090E0981709F453C02D9121939F5FF9CFCC
:100DC0009D9191938F5F17CF0093BC0051CF80917D
:100DD000D4019091D501A091D601B091D701892B72
:100DE0008A2B8B2B09F448CF0E94CE004090D4016F
:100DF0005090D5016090D6017090D7016C197D0993
:100E00008E099F09461657066806790608F034CF02
:100E100064CF8091D4019091D501A091D601B09179
:100E2000D701892B8A2B8B2B09F465CF0E94CE002A
:100E30004090D4015090D5016090D6017090D701B8
:100E40006C197D098E099F094616570668067906B2
:100E500008F051CF8091D3010E944E0280E01092A1
:100E6000F8018093F901882381F180EA92E00E94E1
:100E70007F02F82E84E291E00E94F1024F2D50E0B3
:100E800070E060E019A2FE01B196DB01CA018F702B
:100E90009927AA27BB2794E076956795579547959C
:100EA0009A95D1F78A300CF068C0805D8293411525
:100EB00051056105710549F7309719F0CF010E947E
:100EC000F1028CE391E00E94F1020E94CE002B011E
:100ED0003C0188EEC82E83E0D82EE12CF12C0E9434
:100EE000CE006419750986099709683E734081052B
:100EF0009105A8F381E0C81AD108E108F10828EEAD
:100F0000420E23E0521E611C711CC114D104E10485
:100F1000F10429F7A114B10409F444CE0E9466013A
:100F2000882309F43FCE0E9400003CCE0093BC0011
:100F30002CCF8091D4019091D501A091D601B09190
:100F4000D701892B8A2B8B2B09F423CF0E94CE004B
:100F50004090D4015090D5016090D6017090D70197
:100F60006C197D098E099F09461657066806790691
:100F700008F00FCF6FCF81E017CF895C97CFEE0FCE
:0E0F8000FF1F0590F491E02D0994F894FFCF27
:100F8E00000000009C01FC002901E9015A01380112
:100F9E004C0100000000BF029202EE026F02F3004D
:100FAE007F027002526573706F73746120646F20DC
:100FBE006573637261766F3A203078000D0A000017
:00000001FF
